{
  "_format": "hh-sol-artifact-1",
  "contractName": "ERC1155H",
  "sourceName": "contracts/tokens/ERC1155H.sol",
  "abi": [
    {
      "inputs": [
        {
          "internalType": "string",
          "name": "uri",
          "type": "string"
        }
      ],
      "stateMutability": "nonpayable",
      "type": "constructor"
    },
    {
      "anonymous": false,
      "inputs": [
        {
          "indexed": true,
          "internalType": "address",
          "name": "account",
          "type": "address"
        },
        {
          "indexed": true,
          "internalType": "address",
          "name": "operator",
          "type": "address"
        },
        {
          "indexed": false,
          "internalType": "bool",
          "name": "approved",
          "type": "bool"
        }
      ],
      "name": "ApprovalForAll",
      "type": "event"
    },
    {
      "anonymous": false,
      "inputs": [
        {
          "indexed": true,
          "internalType": "address",
          "name": "operator",
          "type": "address"
        },
        {
          "indexed": true,
          "internalType": "address",
          "name": "from",
          "type": "address"
        },
        {
          "indexed": true,
          "internalType": "address",
          "name": "to",
          "type": "address"
        },
        {
          "indexed": false,
          "internalType": "uint256[]",
          "name": "ids",
          "type": "uint256[]"
        },
        {
          "indexed": false,
          "internalType": "uint256[]",
          "name": "values",
          "type": "uint256[]"
        }
      ],
      "name": "TransferBatch",
      "type": "event"
    },
    {
      "anonymous": false,
      "inputs": [
        {
          "indexed": true,
          "internalType": "address",
          "name": "operator",
          "type": "address"
        },
        {
          "indexed": true,
          "internalType": "address",
          "name": "from",
          "type": "address"
        },
        {
          "indexed": true,
          "internalType": "address",
          "name": "to",
          "type": "address"
        },
        {
          "indexed": false,
          "internalType": "uint256",
          "name": "id",
          "type": "uint256"
        },
        {
          "indexed": false,
          "internalType": "uint256",
          "name": "value",
          "type": "uint256"
        }
      ],
      "name": "TransferSingle",
      "type": "event"
    },
    {
      "anonymous": false,
      "inputs": [
        {
          "indexed": false,
          "internalType": "string",
          "name": "value",
          "type": "string"
        },
        {
          "indexed": true,
          "internalType": "uint256",
          "name": "id",
          "type": "uint256"
        }
      ],
      "name": "URI",
      "type": "event"
    },
    {
      "inputs": [
        {
          "internalType": "address",
          "name": "account",
          "type": "address"
        },
        {
          "internalType": "uint256",
          "name": "id",
          "type": "uint256"
        }
      ],
      "name": "balanceOf",
      "outputs": [
        {
          "internalType": "uint256",
          "name": "",
          "type": "uint256"
        }
      ],
      "stateMutability": "view",
      "type": "function"
    },
    {
      "inputs": [
        {
          "internalType": "address[]",
          "name": "accounts",
          "type": "address[]"
        },
        {
          "internalType": "uint256[]",
          "name": "ids",
          "type": "uint256[]"
        }
      ],
      "name": "balanceOfBatch",
      "outputs": [
        {
          "internalType": "uint256[]",
          "name": "",
          "type": "uint256[]"
        }
      ],
      "stateMutability": "view",
      "type": "function"
    },
    {
      "inputs": [
        {
          "internalType": "address",
          "name": "account",
          "type": "address"
        },
        {
          "internalType": "uint256",
          "name": "id",
          "type": "uint256"
        },
        {
          "internalType": "uint256",
          "name": "value",
          "type": "uint256"
        }
      ],
      "name": "burn",
      "outputs": [],
      "stateMutability": "nonpayable",
      "type": "function"
    },
    {
      "inputs": [
        {
          "internalType": "address",
          "name": "account",
          "type": "address"
        },
        {
          "internalType": "uint256[]",
          "name": "ids",
          "type": "uint256[]"
        },
        {
          "internalType": "uint256[]",
          "name": "values",
          "type": "uint256[]"
        }
      ],
      "name": "burnBatch",
      "outputs": [],
      "stateMutability": "nonpayable",
      "type": "function"
    },
    {
      "inputs": [
        {
          "internalType": "address",
          "name": "account",
          "type": "address"
        },
        {
          "internalType": "address",
          "name": "operator",
          "type": "address"
        }
      ],
      "name": "isApprovedForAll",
      "outputs": [
        {
          "internalType": "bool",
          "name": "",
          "type": "bool"
        }
      ],
      "stateMutability": "view",
      "type": "function"
    },
    {
      "inputs": [
        {
          "internalType": "address",
          "name": "from",
          "type": "address"
        },
        {
          "internalType": "address",
          "name": "to",
          "type": "address"
        },
        {
          "internalType": "uint256[]",
          "name": "ids",
          "type": "uint256[]"
        },
        {
          "internalType": "uint256[]",
          "name": "amounts",
          "type": "uint256[]"
        },
        {
          "internalType": "bytes",
          "name": "data",
          "type": "bytes"
        }
      ],
      "name": "safeBatchTransferFrom",
      "outputs": [],
      "stateMutability": "nonpayable",
      "type": "function"
    },
    {
      "inputs": [
        {
          "internalType": "address",
          "name": "from",
          "type": "address"
        },
        {
          "internalType": "address",
          "name": "to",
          "type": "address"
        },
        {
          "internalType": "uint256",
          "name": "id",
          "type": "uint256"
        },
        {
          "internalType": "uint256",
          "name": "amount",
          "type": "uint256"
        },
        {
          "internalType": "bytes",
          "name": "data",
          "type": "bytes"
        }
      ],
      "name": "safeTransferFrom",
      "outputs": [],
      "stateMutability": "nonpayable",
      "type": "function"
    },
    {
      "inputs": [
        {
          "internalType": "address",
          "name": "operator",
          "type": "address"
        },
        {
          "internalType": "bool",
          "name": "approved",
          "type": "bool"
        }
      ],
      "name": "setApprovalForAll",
      "outputs": [],
      "stateMutability": "nonpayable",
      "type": "function"
    },
    {
      "inputs": [
        {
          "internalType": "bytes4",
          "name": "interfaceId",
          "type": "bytes4"
        }
      ],
      "name": "supportsInterface",
      "outputs": [
        {
          "internalType": "bool",
          "name": "",
          "type": "bool"
        }
      ],
      "stateMutability": "view",
      "type": "function"
    },
    {
      "inputs": [
        {
          "internalType": "uint256",
          "name": "",
          "type": "uint256"
        }
      ],
      "name": "uri",
      "outputs": [
        {
          "internalType": "string",
          "name": "",
          "type": "string"
        }
      ],
      "stateMutability": "view",
      "type": "function"
    }
  ],
  "bytecode": "0x60806040523480156200001157600080fd5b5060405162003321380380620033218339818101604052810190620000379190620001f9565b8062000049816200005160201b60201c565b50506200057c565b806002908162000062919062000495565b5050565b6000604051905090565b600080fd5b600080fd5b600080fd5b600080fd5b6000601f19601f8301169050919050565b7f4e487b7100000000000000000000000000000000000000000000000000000000600052604160045260246000fd5b620000cf8262000084565b810181811067ffffffffffffffff82111715620000f157620000f062000095565b5b80604052505050565b60006200010662000066565b9050620001148282620000c4565b919050565b600067ffffffffffffffff82111562000137576200013662000095565b5b620001428262000084565b9050602081019050919050565b60005b838110156200016f57808201518184015260208101905062000152565b60008484015250505050565b6000620001926200018c8462000119565b620000fa565b905082815260208101848484011115620001b157620001b06200007f565b5b620001be8482856200014f565b509392505050565b600082601f830112620001de57620001dd6200007a565b5b8151620001f08482602086016200017b565b91505092915050565b60006020828403121562000212576200021162000070565b5b600082015167ffffffffffffffff81111562000233576200023262000075565b5b6200024184828501620001c6565b91505092915050565b600081519050919050565b7f4e487b7100000000000000000000000000000000000000000000000000000000600052602260045260246000fd5b600060028204905060018216806200029d57607f821691505b602082108103620002b357620002b262000255565b5b50919050565b60008190508160005260206000209050919050565b60006020601f8301049050919050565b600082821b905092915050565b6000600883026200031d7fffffffffffffffffffffffffffffffffffffffffffffffffffffffffffffffff82620002de565b620003298683620002de565b95508019841693508086168417925050509392505050565b6000819050919050565b6000819050919050565b600062000376620003706200036a8462000341565b6200034b565b62000341565b9050919050565b6000819050919050565b620003928362000355565b620003aa620003a1826200037d565b848454620002eb565b825550505050565b600090565b620003c1620003b2565b620003ce81848462000387565b505050565b5b81811015620003f657620003ea600082620003b7565b600181019050620003d4565b5050565b601f82111562000445576200040f81620002b9565b6200041a84620002ce565b810160208510156200042a578190505b620004426200043985620002ce565b830182620003d3565b50505b505050565b600082821c905092915050565b60006200046a600019846008026200044a565b1980831691505092915050565b600062000485838362000457565b9150826002028217905092915050565b620004a0826200024a565b67ffffffffffffffff811115620004bc57620004bb62000095565b5b620004c8825462000284565b620004d5828285620003fa565b600060209050601f8311600181146200050d5760008415620004f8578287015190505b62000504858262000477565b86555062000574565b601f1984166200051d86620002b9565b60005b82811015620005475784890151825560018201915060208501945060208101905062000520565b8683101562000567578489015162000563601f89168262000457565b8355505b6001600288020188555050505b505050505050565b612d95806200058c6000396000f3fe608060405234801561001057600080fd5b506004361061009d5760003560e01c80636b20c454116100665780636b20c4541461017e578063a22cb4651461019a578063e985e9c5146101b6578063f242432a146101e6578063f5298aca146102025761009d565b8062fdd58e146100a257806301ffc9a7146100d25780630e89341c146101025780632eb2c2d6146101325780634e1273f41461014e575b600080fd5b6100bc60048036038101906100b79190611a4c565b61021e565b6040516100c99190611a9b565b60405180910390f35b6100ec60048036038101906100e79190611b0e565b6102e6565b6040516100f99190611b56565b60405180910390f35b61011c60048036038101906101179190611b71565b6103c8565b6040516101299190611c2e565b60405180910390f35b61014c60048036038101906101479190611e4d565b61045c565b005b61016860048036038101906101639190611fdf565b6104fd565b6040516101759190612115565b60405180910390f35b61019860048036038101906101939190612137565b610616565b005b6101b460048036038101906101af91906121ee565b6106b3565b005b6101d060048036038101906101cb919061222e565b6106c9565b6040516101dd9190611b56565b60405180910390f35b61020060048036038101906101fb919061226e565b61075d565b005b61021c60048036038101906102179190612305565b6107fe565b005b60008073ffffffffffffffffffffffffffffffffffffffff168373ffffffffffffffffffffffffffffffffffffffff160361028e576040517f08c379a0000000000000000000000000000000000000000000000000000000008152600401610285906123ca565b60405180910390fd5b60008083815260200190815260200160002060008473ffffffffffffffffffffffffffffffffffffffff1673ffffffffffffffffffffffffffffffffffffffff16815260200190815260200160002054905092915050565b60007fd9b67a26000000000000000000000000000000000000000000000000000000007bffffffffffffffffffffffffffffffffffffffffffffffffffffffff1916827bffffffffffffffffffffffffffffffffffffffffffffffffffffffff191614806103b157507f0e89341c000000000000000000000000000000000000000000000000000000007bffffffffffffffffffffffffffffffffffffffffffffffffffffffff1916827bffffffffffffffffffffffffffffffffffffffffffffffffffffffff1916145b806103c157506103c08261089b565b5b9050919050565b6060600280546103d790612419565b80601f016020809104026020016040519081016040528092919081815260200182805461040390612419565b80156104505780601f1061042557610100808354040283529160200191610450565b820191906000526020600020905b81548152906001019060200180831161043357829003601f168201915b50505050509050919050565b610464610905565b73ffffffffffffffffffffffffffffffffffffffff168573ffffffffffffffffffffffffffffffffffffffff1614806104aa57506104a9856104a4610905565b6106c9565b5b6104e9576040517f08c379a00000000000000000000000000000000000000000000000000000000081526004016104e0906124bc565b60405180910390fd5b6104f6858585858561090d565b5050505050565b60608151835114610543576040517f08c379a000000000000000000000000000000000000000000000000000000000815260040161053a9061254e565b60405180910390fd5b6000835167ffffffffffffffff8111156105605761055f611c55565b5b60405190808252806020026020018201604052801561058e5781602001602082028036833780820191505090505b50905060005b845181101561060b576105db8582815181106105b3576105b261256e565b5b60200260200101518583815181106105ce576105cd61256e565b5b602002602001015161021e565b8282815181106105ee576105ed61256e565b5b60200260200101818152505080610604906125cc565b9050610594565b508091505092915050565b61061e610905565b73ffffffffffffffffffffffffffffffffffffffff168373ffffffffffffffffffffffffffffffffffffffff16148061066457506106638361065e610905565b6106c9565b5b6106a3576040517f08c379a000000000000000000000000000000000000000000000000000000000815260040161069a906124bc565b60405180910390fd5b6106ae838383610c2e565b505050565b6106c56106be610905565b8383610efc565b5050565b6000600160008473ffffffffffffffffffffffffffffffffffffffff1673ffffffffffffffffffffffffffffffffffffffff16815260200190815260200160002060008373ffffffffffffffffffffffffffffffffffffffff1673ffffffffffffffffffffffffffffffffffffffff16815260200190815260200160002060009054906101000a900460ff16905092915050565b610765610905565b73ffffffffffffffffffffffffffffffffffffffff168573ffffffffffffffffffffffffffffffffffffffff1614806107ab57506107aa856107a5610905565b6106c9565b5b6107ea576040517f08c379a00000000000000000000000000000000000000000000000000000000081526004016107e1906124bc565b60405180910390fd5b6107f78585858585611068565b5050505050565b610806610905565b73ffffffffffffffffffffffffffffffffffffffff168373ffffffffffffffffffffffffffffffffffffffff16148061084c575061084b83610846610905565b6106c9565b5b61088b576040517f08c379a0000000000000000000000000000000000000000000000000000000008152600401610882906124bc565b60405180910390fd5b610896838383611303565b505050565b60007f01ffc9a7000000000000000000000000000000000000000000000000000000007bffffffffffffffffffffffffffffffffffffffffffffffffffffffff1916827bffffffffffffffffffffffffffffffffffffffffffffffffffffffff1916149050919050565b600033905090565b8151835114610951576040517f08c379a000000000000000000000000000000000000000000000000000000000815260040161094890612686565b60405180910390fd5b600073ffffffffffffffffffffffffffffffffffffffff168473ffffffffffffffffffffffffffffffffffffffff16036109c0576040517f08c379a00000000000000000000000000000000000000000000000000000000081526004016109b790612718565b60405180910390fd5b60006109ca610905565b90506109da818787878787611549565b60005b8451811015610b8b5760008582815181106109fb576109fa61256e565b5b602002602001015190506000858381518110610a1a57610a1961256e565b5b60200260200101519050600080600084815260200190815260200160002060008b73ffffffffffffffffffffffffffffffffffffffff1673ffffffffffffffffffffffffffffffffffffffff16815260200190815260200160002054905081811015610abb576040517f08c379a0000000000000000000000000000000000000000000000000000000008152600401610ab2906127aa565b60405180910390fd5b81810360008085815260200190815260200160002060008c73ffffffffffffffffffffffffffffffffffffffff1673ffffffffffffffffffffffffffffffffffffffff168152602001908152602001600020819055508160008085815260200190815260200160002060008b73ffffffffffffffffffffffffffffffffffffffff1673ffffffffffffffffffffffffffffffffffffffff1681526020019081526020016000206000828254610b7091906127ca565b9250508190555050505080610b84906125cc565b90506109dd565b508473ffffffffffffffffffffffffffffffffffffffff168673ffffffffffffffffffffffffffffffffffffffff168273ffffffffffffffffffffffffffffffffffffffff167f4a39dc06d4c0dbc64b70af90fd698a233a518aa5d07e595d983b8c0526c8f7fb8787604051610c029291906127fe565b60405180910390a4610c18818787878787611551565b610c26818787878787611559565b505050505050565b600073ffffffffffffffffffffffffffffffffffffffff168373ffffffffffffffffffffffffffffffffffffffff1603610c9d576040517f08c379a0000000000000000000000000000000000000000000000000000000008152600401610c94906128a7565b60405180910390fd5b8051825114610ce1576040517f08c379a0000000000000000000000000000000000000000000000000000000008152600401610cd890612686565b60405180910390fd5b6000610ceb610905565b9050610d0b81856000868660405180602001604052806000815250611549565b60005b8351811015610e58576000848281518110610d2c57610d2b61256e565b5b602002602001015190506000848381518110610d4b57610d4a61256e565b5b60200260200101519050600080600084815260200190815260200160002060008973ffffffffffffffffffffffffffffffffffffffff1673ffffffffffffffffffffffffffffffffffffffff16815260200190815260200160002054905081811015610dec576040517f08c379a0000000000000000000000000000000000000000000000000000000008152600401610de390612939565b60405180910390fd5b81810360008085815260200190815260200160002060008a73ffffffffffffffffffffffffffffffffffffffff1673ffffffffffffffffffffffffffffffffffffffff168152602001908152602001600020819055505050508080610e50906125cc565b915050610d0e565b50600073ffffffffffffffffffffffffffffffffffffffff168473ffffffffffffffffffffffffffffffffffffffff168273ffffffffffffffffffffffffffffffffffffffff167f4a39dc06d4c0dbc64b70af90fd698a233a518aa5d07e595d983b8c0526c8f7fb8686604051610ed09291906127fe565b60405180910390a4610ef681856000868660405180602001604052806000815250611551565b50505050565b8173ffffffffffffffffffffffffffffffffffffffff168373ffffffffffffffffffffffffffffffffffffffff1603610f6a576040517f08c379a0000000000000000000000000000000000000000000000000000000008152600401610f61906129cb565b60405180910390fd5b80600160008573ffffffffffffffffffffffffffffffffffffffff1673ffffffffffffffffffffffffffffffffffffffff16815260200190815260200160002060008473ffffffffffffffffffffffffffffffffffffffff1673ffffffffffffffffffffffffffffffffffffffff16815260200190815260200160002060006101000a81548160ff0219169083151502179055508173ffffffffffffffffffffffffffffffffffffffff168373ffffffffffffffffffffffffffffffffffffffff167f17307eab39ab6107e8899845ad3d59bd9653f200f220920489ca2b5937696c318360405161105b9190611b56565b60405180910390a3505050565b600073ffffffffffffffffffffffffffffffffffffffff168473ffffffffffffffffffffffffffffffffffffffff16036110d7576040517f08c379a00000000000000000000000000000000000000000000000000000000081526004016110ce90612718565b60405180910390fd5b60006110e1610905565b905060006110ee85611730565b905060006110fb85611730565b905061110b838989858589611549565b600080600088815260200190815260200160002060008a73ffffffffffffffffffffffffffffffffffffffff1673ffffffffffffffffffffffffffffffffffffffff168152602001908152602001600020549050858110156111a2576040517f08c379a0000000000000000000000000000000000000000000000000000000008152600401611199906127aa565b60405180910390fd5b85810360008089815260200190815260200160002060008b73ffffffffffffffffffffffffffffffffffffffff1673ffffffffffffffffffffffffffffffffffffffff168152602001908152602001600020819055508560008089815260200190815260200160002060008a73ffffffffffffffffffffffffffffffffffffffff1673ffffffffffffffffffffffffffffffffffffffff168152602001908152602001600020600082825461125791906127ca565b925050819055508773ffffffffffffffffffffffffffffffffffffffff168973ffffffffffffffffffffffffffffffffffffffff168573ffffffffffffffffffffffffffffffffffffffff167fc3d58168c5ae7397731d063d5bbf3d657854427343f4c083240f7aacaa2d0f628a8a6040516112d49291906129eb565b60405180910390a46112ea848a8a86868a611551565b6112f8848a8a8a8a8a6117aa565b505050505050505050565b600073ffffffffffffffffffffffffffffffffffffffff168373ffffffffffffffffffffffffffffffffffffffff1603611372576040517f08c379a0000000000000000000000000000000000000000000000000000000008152600401611369906128a7565b60405180910390fd5b600061137c610905565b9050600061138984611730565b9050600061139684611730565b90506113b683876000858560405180602001604052806000815250611549565b600080600087815260200190815260200160002060008873ffffffffffffffffffffffffffffffffffffffff1673ffffffffffffffffffffffffffffffffffffffff1681526020019081526020016000205490508481101561144d576040517f08c379a000000000000000000000000000000000000000000000000000000000815260040161144490612939565b60405180910390fd5b84810360008088815260200190815260200160002060008973ffffffffffffffffffffffffffffffffffffffff1673ffffffffffffffffffffffffffffffffffffffff16815260200190815260200160002081905550600073ffffffffffffffffffffffffffffffffffffffff168773ffffffffffffffffffffffffffffffffffffffff168573ffffffffffffffffffffffffffffffffffffffff167fc3d58168c5ae7397731d063d5bbf3d657854427343f4c083240f7aacaa2d0f62898960405161151a9291906129eb565b60405180910390a461154084886000868660405180602001604052806000815250611551565b50505050505050565b505050505050565b505050505050565b6115788473ffffffffffffffffffffffffffffffffffffffff16611981565b15611728578373ffffffffffffffffffffffffffffffffffffffff1663bc197c8187878686866040518663ffffffff1660e01b81526004016115be959493929190612a78565b6020604051808303816000875af19250505080156115fa57506040513d601f19601f820116820180604052508101906115f79190612af5565b60015b61169f57611606612b2f565b806308c379a003611662575061161a612b51565b806116255750611664565b806040517f08c379a00000000000000000000000000000000000000000000000000000000081526004016116599190611c2e565b60405180910390fd5b505b6040517f08c379a000000000000000000000000000000000000000000000000000000000815260040161169690612c53565b60405180910390fd5b63bc197c8160e01b7bffffffffffffffffffffffffffffffffffffffffffffffffffffffff1916817bffffffffffffffffffffffffffffffffffffffffffffffffffffffff191614611726576040517f08c379a000000000000000000000000000000000000000000000000000000000815260040161171d90612ce5565b60405180910390fd5b505b505050505050565b60606000600167ffffffffffffffff81111561174f5761174e611c55565b5b60405190808252806020026020018201604052801561177d5781602001602082028036833780820191505090505b50905082816000815181106117955761179461256e565b5b60200260200101818152505080915050919050565b6117c98473ffffffffffffffffffffffffffffffffffffffff16611981565b15611979578373ffffffffffffffffffffffffffffffffffffffff1663f23a6e6187878686866040518663ffffffff1660e01b815260040161180f959493929190612d05565b6020604051808303816000875af192505050801561184b57506040513d601f19601f820116820180604052508101906118489190612af5565b60015b6118f057611857612b2f565b806308c379a0036118b3575061186b612b51565b8061187657506118b5565b806040517f08c379a00000000000000000000000000000000000000000000000000000000081526004016118aa9190611c2e565b60405180910390fd5b505b6040517f08c379a00000000000000000000000000000000000000000000000000000000081526004016118e790612c53565b60405180910390fd5b63f23a6e6160e01b7bffffffffffffffffffffffffffffffffffffffffffffffffffffffff1916817bffffffffffffffffffffffffffffffffffffffffffffffffffffffff191614611977576040517f08c379a000000000000000000000000000000000000000000000000000000000815260040161196e90612ce5565b60405180910390fd5b505b505050505050565b6000808273ffffffffffffffffffffffffffffffffffffffff163b119050919050565b6000604051905090565b600080fd5b600080fd5b600073ffffffffffffffffffffffffffffffffffffffff82169050919050565b60006119e3826119b8565b9050919050565b6119f3816119d8565b81146119fe57600080fd5b50565b600081359050611a10816119ea565b92915050565b6000819050919050565b611a2981611a16565b8114611a3457600080fd5b50565b600081359050611a4681611a20565b92915050565b60008060408385031215611a6357611a626119ae565b5b6000611a7185828601611a01565b9250506020611a8285828601611a37565b9150509250929050565b611a9581611a16565b82525050565b6000602082019050611ab06000830184611a8c565b92915050565b60007fffffffff0000000000000000000000000000000000000000000000000000000082169050919050565b611aeb81611ab6565b8114611af657600080fd5b50565b600081359050611b0881611ae2565b92915050565b600060208284031215611b2457611b236119ae565b5b6000611b3284828501611af9565b91505092915050565b60008115159050919050565b611b5081611b3b565b82525050565b6000602082019050611b6b6000830184611b47565b92915050565b600060208284031215611b8757611b866119ae565b5b6000611b9584828501611a37565b91505092915050565b600081519050919050565b600082825260208201905092915050565b60005b83811015611bd8578082015181840152602081019050611bbd565b60008484015250505050565b6000601f19601f8301169050919050565b6000611c0082611b9e565b611c0a8185611ba9565b9350611c1a818560208601611bba565b611c2381611be4565b840191505092915050565b60006020820190508181036000830152611c488184611bf5565b905092915050565b600080fd5b7f4e487b7100000000000000000000000000000000000000000000000000000000600052604160045260246000fd5b611c8d82611be4565b810181811067ffffffffffffffff82111715611cac57611cab611c55565b5b80604052505050565b6000611cbf6119a4565b9050611ccb8282611c84565b919050565b600067ffffffffffffffff821115611ceb57611cea611c55565b5b602082029050602081019050919050565b600080fd5b6000611d14611d0f84611cd0565b611cb5565b90508083825260208201905060208402830185811115611d3757611d36611cfc565b5b835b81811015611d605780611d4c8882611a37565b845260208401935050602081019050611d39565b5050509392505050565b600082601f830112611d7f57611d7e611c50565b5b8135611d8f848260208601611d01565b91505092915050565b600080fd5b600067ffffffffffffffff821115611db857611db7611c55565b5b611dc182611be4565b9050602081019050919050565b82818337600083830152505050565b6000611df0611deb84611d9d565b611cb5565b905082815260208101848484011115611e0c57611e0b611d98565b5b611e17848285611dce565b509392505050565b600082601f830112611e3457611e33611c50565b5b8135611e44848260208601611ddd565b91505092915050565b600080600080600060a08688031215611e6957611e686119ae565b5b6000611e7788828901611a01565b9550506020611e8888828901611a01565b945050604086013567ffffffffffffffff811115611ea957611ea86119b3565b5b611eb588828901611d6a565b935050606086013567ffffffffffffffff811115611ed657611ed56119b3565b5b611ee288828901611d6a565b925050608086013567ffffffffffffffff811115611f0357611f026119b3565b5b611f0f88828901611e1f565b9150509295509295909350565b600067ffffffffffffffff821115611f3757611f36611c55565b5b602082029050602081019050919050565b6000611f5b611f5684611f1c565b611cb5565b90508083825260208201905060208402830185811115611f7e57611f7d611cfc565b5b835b81811015611fa75780611f938882611a01565b845260208401935050602081019050611f80565b5050509392505050565b600082601f830112611fc657611fc5611c50565b5b8135611fd6848260208601611f48565b91505092915050565b60008060408385031215611ff657611ff56119ae565b5b600083013567ffffffffffffffff811115612014576120136119b3565b5b61202085828601611fb1565b925050602083013567ffffffffffffffff811115612041576120406119b3565b5b61204d85828601611d6a565b9150509250929050565b600081519050919050565b600082825260208201905092915050565b6000819050602082019050919050565b61208c81611a16565b82525050565b600061209e8383612083565b60208301905092915050565b6000602082019050919050565b60006120c282612057565b6120cc8185612062565b93506120d783612073565b8060005b838110156121085781516120ef8882612092565b97506120fa836120aa565b9250506001810190506120db565b5085935050505092915050565b6000602082019050818103600083015261212f81846120b7565b905092915050565b6000806000606084860312156121505761214f6119ae565b5b600061215e86828701611a01565b935050602084013567ffffffffffffffff81111561217f5761217e6119b3565b5b61218b86828701611d6a565b925050604084013567ffffffffffffffff8111156121ac576121ab6119b3565b5b6121b886828701611d6a565b9150509250925092565b6121cb81611b3b565b81146121d657600080fd5b50565b6000813590506121e8816121c2565b92915050565b60008060408385031215612205576122046119ae565b5b600061221385828601611a01565b9250506020612224858286016121d9565b9150509250929050565b60008060408385031215612245576122446119ae565b5b600061225385828601611a01565b925050602061226485828601611a01565b9150509250929050565b600080600080600060a0868803121561228a576122896119ae565b5b600061229888828901611a01565b95505060206122a988828901611a01565b94505060406122ba88828901611a37565b93505060606122cb88828901611a37565b925050608086013567ffffffffffffffff8111156122ec576122eb6119b3565b5b6122f888828901611e1f565b9150509295509295909350565b60008060006060848603121561231e5761231d6119ae565b5b600061232c86828701611a01565b935050602061233d86828701611a37565b925050604061234e86828701611a37565b9150509250925092565b7f455243313135353a2061646472657373207a65726f206973206e6f742061207660008201527f616c6964206f776e657200000000000000000000000000000000000000000000602082015250565b60006123b4602a83611ba9565b91506123bf82612358565b604082019050919050565b600060208201905081810360008301526123e3816123a7565b9050919050565b7f4e487b7100000000000000000000000000000000000000000000000000000000600052602260045260246000fd5b6000600282049050600182168061243157607f821691505b602082108103612444576124436123ea565b5b50919050565b7f455243313135353a2063616c6c6572206973206e6f7420746f6b656e206f776e60008201527f6572206f7220617070726f766564000000000000000000000000000000000000602082015250565b60006124a6602e83611ba9565b91506124b18261244a565b604082019050919050565b600060208201905081810360008301526124d581612499565b9050919050565b7f455243313135353a206163636f756e747320616e6420696473206c656e67746860008201527f206d69736d617463680000000000000000000000000000000000000000000000602082015250565b6000612538602983611ba9565b9150612543826124dc565b604082019050919050565b600060208201905081810360008301526125678161252b565b9050919050565b7f4e487b7100000000000000000000000000000000000000000000000000000000600052603260045260246000fd5b7f4e487b7100000000000000000000000000000000000000000000000000000000600052601160045260246000fd5b60006125d782611a16565b91507fffffffffffffffffffffffffffffffffffffffffffffffffffffffffffffffff82036126095761260861259d565b5b600182019050919050565b7f455243313135353a2069647320616e6420616d6f756e7473206c656e6774682060008201527f6d69736d61746368000000000000000000000000000000000000000000000000602082015250565b6000612670602883611ba9565b915061267b82612614565b604082019050919050565b6000602082019050818103600083015261269f81612663565b9050919050565b7f455243313135353a207472616e7366657220746f20746865207a65726f20616460008201527f6472657373000000000000000000000000000000000000000000000000000000602082015250565b6000612702602583611ba9565b915061270d826126a6565b604082019050919050565b60006020820190508181036000830152612731816126f5565b9050919050565b7f455243313135353a20696e73756666696369656e742062616c616e636520666f60008201527f72207472616e7366657200000000000000000000000000000000000000000000602082015250565b6000612794602a83611ba9565b915061279f82612738565b604082019050919050565b600060208201905081810360008301526127c381612787565b9050919050565b60006127d582611a16565b91506127e083611a16565b92508282019050808211156127f8576127f761259d565b5b92915050565b6000604082019050818103600083015261281881856120b7565b9050818103602083015261282c81846120b7565b90509392505050565b7f455243313135353a206275726e2066726f6d20746865207a65726f206164647260008201527f6573730000000000000000000000000000000000000000000000000000000000602082015250565b6000612891602383611ba9565b915061289c82612835565b604082019050919050565b600060208201905081810360008301526128c081612884565b9050919050565b7f455243313135353a206275726e20616d6f756e7420657863656564732062616c60008201527f616e636500000000000000000000000000000000000000000000000000000000602082015250565b6000612923602483611ba9565b915061292e826128c7565b604082019050919050565b6000602082019050818103600083015261295281612916565b9050919050565b7f455243313135353a2073657474696e6720617070726f76616c2073746174757360008201527f20666f722073656c660000000000000000000000000000000000000000000000602082015250565b60006129b5602983611ba9565b91506129c082612959565b604082019050919050565b600060208201905081810360008301526129e4816129a8565b9050919050565b6000604082019050612a006000830185611a8c565b612a0d6020830184611a8c565b9392505050565b612a1d816119d8565b82525050565b600081519050919050565b600082825260208201905092915050565b6000612a4a82612a23565b612a548185612a2e565b9350612a64818560208601611bba565b612a6d81611be4565b840191505092915050565b600060a082019050612a8d6000830188612a14565b612a9a6020830187612a14565b8181036040830152612aac81866120b7565b90508181036060830152612ac081856120b7565b90508181036080830152612ad48184612a3f565b90509695505050505050565b600081519050612aef81611ae2565b92915050565b600060208284031215612b0b57612b0a6119ae565b5b6000612b1984828501612ae0565b91505092915050565b60008160e01c9050919050565b600060033d1115612b4e5760046000803e612b4b600051612b22565b90505b90565b600060443d10612bde57612b636119a4565b60043d036004823e80513d602482011167ffffffffffffffff82111715612b8b575050612bde565b808201805167ffffffffffffffff811115612ba95750505050612bde565b80602083010160043d038501811115612bc6575050505050612bde565b612bd582602001850186611c84565b82955050505050505b90565b7f455243313135353a207472616e7366657220746f206e6f6e2d4552433131353560008201527f526563656976657220696d706c656d656e746572000000000000000000000000602082015250565b6000612c3d603483611ba9565b9150612c4882612be1565b604082019050919050565b60006020820190508181036000830152612c6c81612c30565b9050919050565b7f455243313135353a204552433131353552656365697665722072656a6563746560008201527f6420746f6b656e73000000000000000000000000000000000000000000000000602082015250565b6000612ccf602883611ba9565b9150612cda82612c73565b604082019050919050565b60006020820190508181036000830152612cfe81612cc2565b9050919050565b600060a082019050612d1a6000830188612a14565b612d276020830187612a14565b612d346040830186611a8c565b612d416060830185611a8c565b8181036080830152612d538184612a3f565b9050969550505050505056fea264697066735822122064bdc591f81575229e3c31f4c930678404bec06d2ef15cf92bb000d729b053b464736f6c63430008130033",
  "linkReferences": {},
  "deployedLinkReferences": {}
}