{
  "_format": "hh-sol-artifact-1",
  "contractName": "ERC1155H",
  "sourceName": "contracts/tokens/ERC1155H.sol",
  "abi": [
    {
      "inputs": [
        {
          "internalType": "string",
          "name": "uri",
          "type": "string"
        }
      ],
      "stateMutability": "nonpayable",
      "type": "constructor"
    },
    {
      "anonymous": false,
      "inputs": [
        {
          "indexed": true,
          "internalType": "address",
          "name": "account",
          "type": "address"
        },
        {
          "indexed": true,
          "internalType": "address",
          "name": "operator",
          "type": "address"
        },
        {
          "indexed": false,
          "internalType": "bool",
          "name": "approved",
          "type": "bool"
        }
      ],
      "name": "ApprovalForAll",
      "type": "event"
    },
    {
      "anonymous": false,
      "inputs": [
        {
          "indexed": true,
          "internalType": "address",
          "name": "previousOwner",
          "type": "address"
        },
        {
          "indexed": true,
          "internalType": "address",
          "name": "newOwner",
          "type": "address"
        }
      ],
      "name": "OwnershipTransferred",
      "type": "event"
    },
    {
      "anonymous": false,
      "inputs": [
        {
          "indexed": true,
          "internalType": "address",
          "name": "operator",
          "type": "address"
        },
        {
          "indexed": true,
          "internalType": "address",
          "name": "from",
          "type": "address"
        },
        {
          "indexed": true,
          "internalType": "address",
          "name": "to",
          "type": "address"
        },
        {
          "indexed": false,
          "internalType": "uint256[]",
          "name": "ids",
          "type": "uint256[]"
        },
        {
          "indexed": false,
          "internalType": "uint256[]",
          "name": "values",
          "type": "uint256[]"
        }
      ],
      "name": "TransferBatch",
      "type": "event"
    },
    {
      "anonymous": false,
      "inputs": [
        {
          "indexed": true,
          "internalType": "address",
          "name": "operator",
          "type": "address"
        },
        {
          "indexed": true,
          "internalType": "address",
          "name": "from",
          "type": "address"
        },
        {
          "indexed": true,
          "internalType": "address",
          "name": "to",
          "type": "address"
        },
        {
          "indexed": false,
          "internalType": "uint256",
          "name": "id",
          "type": "uint256"
        },
        {
          "indexed": false,
          "internalType": "uint256",
          "name": "value",
          "type": "uint256"
        }
      ],
      "name": "TransferSingle",
      "type": "event"
    },
    {
      "anonymous": false,
      "inputs": [
        {
          "indexed": false,
          "internalType": "string",
          "name": "value",
          "type": "string"
        },
        {
          "indexed": true,
          "internalType": "uint256",
          "name": "id",
          "type": "uint256"
        }
      ],
      "name": "URI",
      "type": "event"
    },
    {
      "inputs": [
        {
          "internalType": "address",
          "name": "account",
          "type": "address"
        },
        {
          "internalType": "uint256",
          "name": "id",
          "type": "uint256"
        }
      ],
      "name": "balanceOf",
      "outputs": [
        {
          "internalType": "uint256",
          "name": "",
          "type": "uint256"
        }
      ],
      "stateMutability": "view",
      "type": "function"
    },
    {
      "inputs": [
        {
          "internalType": "address[]",
          "name": "accounts",
          "type": "address[]"
        },
        {
          "internalType": "uint256[]",
          "name": "ids",
          "type": "uint256[]"
        }
      ],
      "name": "balanceOfBatch",
      "outputs": [
        {
          "internalType": "uint256[]",
          "name": "",
          "type": "uint256[]"
        }
      ],
      "stateMutability": "view",
      "type": "function"
    },
    {
      "inputs": [
        {
          "internalType": "address",
          "name": "account",
          "type": "address"
        },
        {
          "internalType": "uint256",
          "name": "id",
          "type": "uint256"
        },
        {
          "internalType": "uint256",
          "name": "value",
          "type": "uint256"
        }
      ],
      "name": "burn",
      "outputs": [],
      "stateMutability": "nonpayable",
      "type": "function"
    },
    {
      "inputs": [
        {
          "internalType": "address",
          "name": "account",
          "type": "address"
        },
        {
          "internalType": "uint256[]",
          "name": "ids",
          "type": "uint256[]"
        },
        {
          "internalType": "uint256[]",
          "name": "values",
          "type": "uint256[]"
        }
      ],
      "name": "burnBatch",
      "outputs": [],
      "stateMutability": "nonpayable",
      "type": "function"
    },
    {
      "inputs": [
        {
          "internalType": "address",
          "name": "account",
          "type": "address"
        },
        {
          "internalType": "address",
          "name": "operator",
          "type": "address"
        }
      ],
      "name": "isApprovedForAll",
      "outputs": [
        {
          "internalType": "bool",
          "name": "",
          "type": "bool"
        }
      ],
      "stateMutability": "view",
      "type": "function"
    },
    {
      "inputs": [],
      "name": "owner",
      "outputs": [
        {
          "internalType": "address",
          "name": "",
          "type": "address"
        }
      ],
      "stateMutability": "view",
      "type": "function"
    },
    {
      "inputs": [],
      "name": "renounceOwnership",
      "outputs": [],
      "stateMutability": "nonpayable",
      "type": "function"
    },
    {
      "inputs": [
        {
          "internalType": "address",
          "name": "from",
          "type": "address"
        },
        {
          "internalType": "address",
          "name": "to",
          "type": "address"
        },
        {
          "internalType": "uint256[]",
          "name": "ids",
          "type": "uint256[]"
        },
        {
          "internalType": "uint256[]",
          "name": "amounts",
          "type": "uint256[]"
        },
        {
          "internalType": "bytes",
          "name": "data",
          "type": "bytes"
        }
      ],
      "name": "safeBatchTransferFrom",
      "outputs": [],
      "stateMutability": "nonpayable",
      "type": "function"
    },
    {
      "inputs": [
        {
          "internalType": "address",
          "name": "from",
          "type": "address"
        },
        {
          "internalType": "address",
          "name": "to",
          "type": "address"
        },
        {
          "internalType": "uint256",
          "name": "id",
          "type": "uint256"
        },
        {
          "internalType": "uint256",
          "name": "amount",
          "type": "uint256"
        },
        {
          "internalType": "bytes",
          "name": "data",
          "type": "bytes"
        }
      ],
      "name": "safeTransferFrom",
      "outputs": [],
      "stateMutability": "nonpayable",
      "type": "function"
    },
    {
      "inputs": [
        {
          "internalType": "address",
          "name": "operator",
          "type": "address"
        },
        {
          "internalType": "bool",
          "name": "approved",
          "type": "bool"
        }
      ],
      "name": "setApprovalForAll",
      "outputs": [],
      "stateMutability": "nonpayable",
      "type": "function"
    },
    {
      "inputs": [
        {
          "internalType": "bytes4",
          "name": "interfaceId",
          "type": "bytes4"
        }
      ],
      "name": "supportsInterface",
      "outputs": [
        {
          "internalType": "bool",
          "name": "",
          "type": "bool"
        }
      ],
      "stateMutability": "view",
      "type": "function"
    },
    {
      "inputs": [
        {
          "internalType": "address",
          "name": "newOwner",
          "type": "address"
        }
      ],
      "name": "transferOwnership",
      "outputs": [],
      "stateMutability": "nonpayable",
      "type": "function"
    },
    {
      "inputs": [
        {
          "internalType": "uint256",
          "name": "",
          "type": "uint256"
        }
      ],
      "name": "uri",
      "outputs": [
        {
          "internalType": "string",
          "name": "",
          "type": "string"
        }
      ],
      "stateMutability": "view",
      "type": "function"
    }
  ],
  "bytecode": "0x60806040523480156200001157600080fd5b50604051620037cf380380620037cf8339818101604052810190620000379190620002e7565b8062000049816200007160201b60201c565b506200006a6200005e6200008660201b60201c565b6200008e60201b60201c565b506200066a565b806002908162000082919062000583565b5050565b600033905090565b6000600360009054906101000a900473ffffffffffffffffffffffffffffffffffffffff16905081600360006101000a81548173ffffffffffffffffffffffffffffffffffffffff021916908373ffffffffffffffffffffffffffffffffffffffff1602179055508173ffffffffffffffffffffffffffffffffffffffff168173ffffffffffffffffffffffffffffffffffffffff167f8be0079c531659141344cd1fd0a4f28419497f9722a3daafe3b4186f6b6457e060405160405180910390a35050565b6000604051905090565b600080fd5b600080fd5b600080fd5b600080fd5b6000601f19601f8301169050919050565b7f4e487b7100000000000000000000000000000000000000000000000000000000600052604160045260246000fd5b620001bd8262000172565b810181811067ffffffffffffffff82111715620001df57620001de62000183565b5b80604052505050565b6000620001f462000154565b9050620002028282620001b2565b919050565b600067ffffffffffffffff82111562000225576200022462000183565b5b620002308262000172565b9050602081019050919050565b60005b838110156200025d57808201518184015260208101905062000240565b60008484015250505050565b6000620002806200027a8462000207565b620001e8565b9050828152602081018484840111156200029f576200029e6200016d565b5b620002ac8482856200023d565b509392505050565b600082601f830112620002cc57620002cb62000168565b5b8151620002de84826020860162000269565b91505092915050565b6000602082840312156200030057620002ff6200015e565b5b600082015167ffffffffffffffff81111562000321576200032062000163565b5b6200032f84828501620002b4565b91505092915050565b600081519050919050565b7f4e487b7100000000000000000000000000000000000000000000000000000000600052602260045260246000fd5b600060028204905060018216806200038b57607f821691505b602082108103620003a157620003a062000343565b5b50919050565b60008190508160005260206000209050919050565b60006020601f8301049050919050565b600082821b905092915050565b6000600883026200040b7fffffffffffffffffffffffffffffffffffffffffffffffffffffffffffffffff82620003cc565b620004178683620003cc565b95508019841693508086168417925050509392505050565b6000819050919050565b6000819050919050565b6000620004646200045e62000458846200042f565b62000439565b6200042f565b9050919050565b6000819050919050565b620004808362000443565b620004986200048f826200046b565b848454620003d9565b825550505050565b600090565b620004af620004a0565b620004bc81848462000475565b505050565b5b81811015620004e457620004d8600082620004a5565b600181019050620004c2565b5050565b601f8211156200053357620004fd81620003a7565b6200050884620003bc565b8101602085101562000518578190505b620005306200052785620003bc565b830182620004c1565b50505b505050565b600082821c905092915050565b6000620005586000198460080262000538565b1980831691505092915050565b600062000573838362000545565b9150826002028217905092915050565b6200058e8262000338565b67ffffffffffffffff811115620005aa57620005a962000183565b5b620005b6825462000372565b620005c3828285620004e8565b600060209050601f831160018114620005fb5760008415620005e6578287015190505b620005f2858262000565565b86555062000662565b601f1984166200060b86620003a7565b60005b8281101562000635578489015182556001820191506020850194506020810190506200060e565b8683101562000655578489015162000651601f89168262000545565b8355505b6001600288020188555050505b505050505050565b613155806200067a6000396000f3fe608060405234801561001057600080fd5b50600436106100ce5760003560e01c8063715018a61161008c578063e985e9c511610066578063e985e9c51461020f578063f242432a1461023f578063f2fde38b1461025b578063f5298aca14610277576100ce565b8063715018a6146101cb5780638da5cb5b146101d5578063a22cb465146101f3576100ce565b8062fdd58e146100d357806301ffc9a7146101035780630e89341c146101335780632eb2c2d6146101635780634e1273f41461017f5780636b20c454146101af575b600080fd5b6100ed60048036038101906100e89190611cc6565b610293565b6040516100fa9190611d15565b60405180910390f35b61011d60048036038101906101189190611d88565b61035b565b60405161012a9190611dd0565b60405180910390f35b61014d60048036038101906101489190611deb565b61043d565b60405161015a9190611ea8565b60405180910390f35b61017d600480360381019061017891906120c7565b6104d1565b005b61019960048036038101906101949190612259565b610572565b6040516101a6919061238f565b60405180910390f35b6101c960048036038101906101c491906123b1565b61068b565b005b6101d3610728565b005b6101dd61073c565b6040516101ea919061244b565b60405180910390f35b61020d60048036038101906102089190612492565b610766565b005b610229600480360381019061022491906124d2565b61077c565b6040516102369190611dd0565b60405180910390f35b61025960048036038101906102549190612512565b610810565b005b610275600480360381019061027091906125a9565b6108b1565b005b610291600480360381019061028c91906125d6565b610934565b005b60008073ffffffffffffffffffffffffffffffffffffffff168373ffffffffffffffffffffffffffffffffffffffff1603610303576040517f08c379a00000000000000000000000000000000000000000000000000000000081526004016102fa9061269b565b60405180910390fd5b60008083815260200190815260200160002060008473ffffffffffffffffffffffffffffffffffffffff1673ffffffffffffffffffffffffffffffffffffffff16815260200190815260200160002054905092915050565b60007fd9b67a26000000000000000000000000000000000000000000000000000000007bffffffffffffffffffffffffffffffffffffffffffffffffffffffff1916827bffffffffffffffffffffffffffffffffffffffffffffffffffffffff1916148061042657507f0e89341c000000000000000000000000000000000000000000000000000000007bffffffffffffffffffffffffffffffffffffffffffffffffffffffff1916827bffffffffffffffffffffffffffffffffffffffffffffffffffffffff1916145b806104365750610435826109d1565b5b9050919050565b60606002805461044c906126ea565b80601f0160208091040260200160405190810160405280929190818152602001828054610478906126ea565b80156104c55780601f1061049a576101008083540402835291602001916104c5565b820191906000526020600020905b8154815290600101906020018083116104a857829003601f168201915b50505050509050919050565b6104d9610a3b565b73ffffffffffffffffffffffffffffffffffffffff168573ffffffffffffffffffffffffffffffffffffffff16148061051f575061051e85610519610a3b565b61077c565b5b61055e576040517f08c379a00000000000000000000000000000000000000000000000000000000081526004016105559061278d565b60405180910390fd5b61056b8585858585610a43565b5050505050565b606081518351146105b8576040517f08c379a00000000000000000000000000000000000000000000000000000000081526004016105af9061281f565b60405180910390fd5b6000835167ffffffffffffffff8111156105d5576105d4611ecf565b5b6040519080825280602002602001820160405280156106035781602001602082028036833780820191505090505b50905060005b8451811015610680576106508582815181106106285761062761283f565b5b60200260200101518583815181106106435761064261283f565b5b6020026020010151610293565b8282815181106106635761066261283f565b5b602002602001018181525050806106799061289d565b9050610609565b508091505092915050565b610693610a3b565b73ffffffffffffffffffffffffffffffffffffffff168373ffffffffffffffffffffffffffffffffffffffff1614806106d957506106d8836106d3610a3b565b61077c565b5b610718576040517f08c379a000000000000000000000000000000000000000000000000000000000815260040161070f9061278d565b60405180910390fd5b610723838383610d64565b505050565b610730611032565b61073a60006110b0565b565b6000600360009054906101000a900473ffffffffffffffffffffffffffffffffffffffff16905090565b610778610771610a3b565b8383611176565b5050565b6000600160008473ffffffffffffffffffffffffffffffffffffffff1673ffffffffffffffffffffffffffffffffffffffff16815260200190815260200160002060008373ffffffffffffffffffffffffffffffffffffffff1673ffffffffffffffffffffffffffffffffffffffff16815260200190815260200160002060009054906101000a900460ff16905092915050565b610818610a3b565b73ffffffffffffffffffffffffffffffffffffffff168573ffffffffffffffffffffffffffffffffffffffff16148061085e575061085d85610858610a3b565b61077c565b5b61089d576040517f08c379a00000000000000000000000000000000000000000000000000000000081526004016108949061278d565b60405180910390fd5b6108aa85858585856112e2565b5050505050565b6108b9611032565b600073ffffffffffffffffffffffffffffffffffffffff168173ffffffffffffffffffffffffffffffffffffffff1603610928576040517f08c379a000000000000000000000000000000000000000000000000000000000815260040161091f90612957565b60405180910390fd5b610931816110b0565b50565b61093c610a3b565b73ffffffffffffffffffffffffffffffffffffffff168373ffffffffffffffffffffffffffffffffffffffff16148061098257506109818361097c610a3b565b61077c565b5b6109c1576040517f08c379a00000000000000000000000000000000000000000000000000000000081526004016109b89061278d565b60405180910390fd5b6109cc83838361157d565b505050565b60007f01ffc9a7000000000000000000000000000000000000000000000000000000007bffffffffffffffffffffffffffffffffffffffffffffffffffffffff1916827bffffffffffffffffffffffffffffffffffffffffffffffffffffffff1916149050919050565b600033905090565b8151835114610a87576040517f08c379a0000000000000000000000000000000000000000000000000000000008152600401610a7e906129e9565b60405180910390fd5b600073ffffffffffffffffffffffffffffffffffffffff168473ffffffffffffffffffffffffffffffffffffffff1603610af6576040517f08c379a0000000000000000000000000000000000000000000000000000000008152600401610aed90612a7b565b60405180910390fd5b6000610b00610a3b565b9050610b108187878787876117c3565b60005b8451811015610cc1576000858281518110610b3157610b3061283f565b5b602002602001015190506000858381518110610b5057610b4f61283f565b5b60200260200101519050600080600084815260200190815260200160002060008b73ffffffffffffffffffffffffffffffffffffffff1673ffffffffffffffffffffffffffffffffffffffff16815260200190815260200160002054905081811015610bf1576040517f08c379a0000000000000000000000000000000000000000000000000000000008152600401610be890612b0d565b60405180910390fd5b81810360008085815260200190815260200160002060008c73ffffffffffffffffffffffffffffffffffffffff1673ffffffffffffffffffffffffffffffffffffffff168152602001908152602001600020819055508160008085815260200190815260200160002060008b73ffffffffffffffffffffffffffffffffffffffff1673ffffffffffffffffffffffffffffffffffffffff1681526020019081526020016000206000828254610ca69190612b2d565b9250508190555050505080610cba9061289d565b9050610b13565b508473ffffffffffffffffffffffffffffffffffffffff168673ffffffffffffffffffffffffffffffffffffffff168273ffffffffffffffffffffffffffffffffffffffff167f4a39dc06d4c0dbc64b70af90fd698a233a518aa5d07e595d983b8c0526c8f7fb8787604051610d38929190612b61565b60405180910390a4610d4e8187878787876117cb565b610d5c8187878787876117d3565b505050505050565b600073ffffffffffffffffffffffffffffffffffffffff168373ffffffffffffffffffffffffffffffffffffffff1603610dd3576040517f08c379a0000000000000000000000000000000000000000000000000000000008152600401610dca90612c0a565b60405180910390fd5b8051825114610e17576040517f08c379a0000000000000000000000000000000000000000000000000000000008152600401610e0e906129e9565b60405180910390fd5b6000610e21610a3b565b9050610e41818560008686604051806020016040528060008152506117c3565b60005b8351811015610f8e576000848281518110610e6257610e6161283f565b5b602002602001015190506000848381518110610e8157610e8061283f565b5b60200260200101519050600080600084815260200190815260200160002060008973ffffffffffffffffffffffffffffffffffffffff1673ffffffffffffffffffffffffffffffffffffffff16815260200190815260200160002054905081811015610f22576040517f08c379a0000000000000000000000000000000000000000000000000000000008152600401610f1990612c9c565b60405180910390fd5b81810360008085815260200190815260200160002060008a73ffffffffffffffffffffffffffffffffffffffff1673ffffffffffffffffffffffffffffffffffffffff168152602001908152602001600020819055505050508080610f869061289d565b915050610e44565b50600073ffffffffffffffffffffffffffffffffffffffff168473ffffffffffffffffffffffffffffffffffffffff168273ffffffffffffffffffffffffffffffffffffffff167f4a39dc06d4c0dbc64b70af90fd698a233a518aa5d07e595d983b8c0526c8f7fb8686604051611006929190612b61565b60405180910390a461102c818560008686604051806020016040528060008152506117cb565b50505050565b61103a610a3b565b73ffffffffffffffffffffffffffffffffffffffff1661105861073c565b73ffffffffffffffffffffffffffffffffffffffff16146110ae576040517f08c379a00000000000000000000000000000000000000000000000000000000081526004016110a590612d08565b60405180910390fd5b565b6000600360009054906101000a900473ffffffffffffffffffffffffffffffffffffffff16905081600360006101000a81548173ffffffffffffffffffffffffffffffffffffffff021916908373ffffffffffffffffffffffffffffffffffffffff1602179055508173ffffffffffffffffffffffffffffffffffffffff168173ffffffffffffffffffffffffffffffffffffffff167f8be0079c531659141344cd1fd0a4f28419497f9722a3daafe3b4186f6b6457e060405160405180910390a35050565b8173ffffffffffffffffffffffffffffffffffffffff168373ffffffffffffffffffffffffffffffffffffffff16036111e4576040517f08c379a00000000000000000000000000000000000000000000000000000000081526004016111db90612d9a565b60405180910390fd5b80600160008573ffffffffffffffffffffffffffffffffffffffff1673ffffffffffffffffffffffffffffffffffffffff16815260200190815260200160002060008473ffffffffffffffffffffffffffffffffffffffff1673ffffffffffffffffffffffffffffffffffffffff16815260200190815260200160002060006101000a81548160ff0219169083151502179055508173ffffffffffffffffffffffffffffffffffffffff168373ffffffffffffffffffffffffffffffffffffffff167f17307eab39ab6107e8899845ad3d59bd9653f200f220920489ca2b5937696c31836040516112d59190611dd0565b60405180910390a3505050565b600073ffffffffffffffffffffffffffffffffffffffff168473ffffffffffffffffffffffffffffffffffffffff1603611351576040517f08c379a000000000000000000000000000000000000000000000000000000000815260040161134890612a7b565b60405180910390fd5b600061135b610a3b565b90506000611368856119aa565b90506000611375856119aa565b90506113858389898585896117c3565b600080600088815260200190815260200160002060008a73ffffffffffffffffffffffffffffffffffffffff1673ffffffffffffffffffffffffffffffffffffffff1681526020019081526020016000205490508581101561141c576040517f08c379a000000000000000000000000000000000000000000000000000000000815260040161141390612b0d565b60405180910390fd5b85810360008089815260200190815260200160002060008b73ffffffffffffffffffffffffffffffffffffffff1673ffffffffffffffffffffffffffffffffffffffff168152602001908152602001600020819055508560008089815260200190815260200160002060008a73ffffffffffffffffffffffffffffffffffffffff1673ffffffffffffffffffffffffffffffffffffffff16815260200190815260200160002060008282546114d19190612b2d565b925050819055508773ffffffffffffffffffffffffffffffffffffffff168973ffffffffffffffffffffffffffffffffffffffff168573ffffffffffffffffffffffffffffffffffffffff167fc3d58168c5ae7397731d063d5bbf3d657854427343f4c083240f7aacaa2d0f628a8a60405161154e929190612dba565b60405180910390a4611564848a8a86868a6117cb565b611572848a8a8a8a8a611a24565b505050505050505050565b600073ffffffffffffffffffffffffffffffffffffffff168373ffffffffffffffffffffffffffffffffffffffff16036115ec576040517f08c379a00000000000000000000000000000000000000000000000000000000081526004016115e390612c0a565b60405180910390fd5b60006115f6610a3b565b90506000611603846119aa565b90506000611610846119aa565b9050611630838760008585604051806020016040528060008152506117c3565b600080600087815260200190815260200160002060008873ffffffffffffffffffffffffffffffffffffffff1673ffffffffffffffffffffffffffffffffffffffff168152602001908152602001600020549050848110156116c7576040517f08c379a00000000000000000000000000000000000000000000000000000000081526004016116be90612c9c565b60405180910390fd5b84810360008088815260200190815260200160002060008973ffffffffffffffffffffffffffffffffffffffff1673ffffffffffffffffffffffffffffffffffffffff16815260200190815260200160002081905550600073ffffffffffffffffffffffffffffffffffffffff168773ffffffffffffffffffffffffffffffffffffffff168573ffffffffffffffffffffffffffffffffffffffff167fc3d58168c5ae7397731d063d5bbf3d657854427343f4c083240f7aacaa2d0f628989604051611794929190612dba565b60405180910390a46117ba848860008686604051806020016040528060008152506117cb565b50505050505050565b505050505050565b505050505050565b6117f28473ffffffffffffffffffffffffffffffffffffffff16611bfb565b156119a2578373ffffffffffffffffffffffffffffffffffffffff1663bc197c8187878686866040518663ffffffff1660e01b8152600401611838959493929190612e38565b6020604051808303816000875af192505050801561187457506040513d601f19601f820116820180604052508101906118719190612eb5565b60015b61191957611880612eef565b806308c379a0036118dc5750611894612f11565b8061189f57506118de565b806040517f08c379a00000000000000000000000000000000000000000000000000000000081526004016118d39190611ea8565b60405180910390fd5b505b6040517f08c379a000000000000000000000000000000000000000000000000000000000815260040161191090613013565b60405180910390fd5b63bc197c8160e01b7bffffffffffffffffffffffffffffffffffffffffffffffffffffffff1916817bffffffffffffffffffffffffffffffffffffffffffffffffffffffff1916146119a0576040517f08c379a0000000000000000000000000000000000000000000000000000000008152600401611997906130a5565b60405180910390fd5b505b505050505050565b60606000600167ffffffffffffffff8111156119c9576119c8611ecf565b5b6040519080825280602002602001820160405280156119f75781602001602082028036833780820191505090505b5090508281600081518110611a0f57611a0e61283f565b5b60200260200101818152505080915050919050565b611a438473ffffffffffffffffffffffffffffffffffffffff16611bfb565b15611bf3578373ffffffffffffffffffffffffffffffffffffffff1663f23a6e6187878686866040518663ffffffff1660e01b8152600401611a899594939291906130c5565b6020604051808303816000875af1925050508015611ac557506040513d601f19601f82011682018060405250810190611ac29190612eb5565b60015b611b6a57611ad1612eef565b806308c379a003611b2d5750611ae5612f11565b80611af05750611b2f565b806040517f08c379a0000000000000000000000000000000000000000000000000000000008152600401611b249190611ea8565b60405180910390fd5b505b6040517f08c379a0000000000000000000000000000000000000000000000000000000008152600401611b6190613013565b60405180910390fd5b63f23a6e6160e01b7bffffffffffffffffffffffffffffffffffffffffffffffffffffffff1916817bffffffffffffffffffffffffffffffffffffffffffffffffffffffff191614611bf1576040517f08c379a0000000000000000000000000000000000000000000000000000000008152600401611be8906130a5565b60405180910390fd5b505b505050505050565b6000808273ffffffffffffffffffffffffffffffffffffffff163b119050919050565b6000604051905090565b600080fd5b600080fd5b600073ffffffffffffffffffffffffffffffffffffffff82169050919050565b6000611c5d82611c32565b9050919050565b611c6d81611c52565b8114611c7857600080fd5b50565b600081359050611c8a81611c64565b92915050565b6000819050919050565b611ca381611c90565b8114611cae57600080fd5b50565b600081359050611cc081611c9a565b92915050565b60008060408385031215611cdd57611cdc611c28565b5b6000611ceb85828601611c7b565b9250506020611cfc85828601611cb1565b9150509250929050565b611d0f81611c90565b82525050565b6000602082019050611d2a6000830184611d06565b92915050565b60007fffffffff0000000000000000000000000000000000000000000000000000000082169050919050565b611d6581611d30565b8114611d7057600080fd5b50565b600081359050611d8281611d5c565b92915050565b600060208284031215611d9e57611d9d611c28565b5b6000611dac84828501611d73565b91505092915050565b60008115159050919050565b611dca81611db5565b82525050565b6000602082019050611de56000830184611dc1565b92915050565b600060208284031215611e0157611e00611c28565b5b6000611e0f84828501611cb1565b91505092915050565b600081519050919050565b600082825260208201905092915050565b60005b83811015611e52578082015181840152602081019050611e37565b60008484015250505050565b6000601f19601f8301169050919050565b6000611e7a82611e18565b611e848185611e23565b9350611e94818560208601611e34565b611e9d81611e5e565b840191505092915050565b60006020820190508181036000830152611ec28184611e6f565b905092915050565b600080fd5b7f4e487b7100000000000000000000000000000000000000000000000000000000600052604160045260246000fd5b611f0782611e5e565b810181811067ffffffffffffffff82111715611f2657611f25611ecf565b5b80604052505050565b6000611f39611c1e565b9050611f458282611efe565b919050565b600067ffffffffffffffff821115611f6557611f64611ecf565b5b602082029050602081019050919050565b600080fd5b6000611f8e611f8984611f4a565b611f2f565b90508083825260208201905060208402830185811115611fb157611fb0611f76565b5b835b81811015611fda5780611fc68882611cb1565b845260208401935050602081019050611fb3565b5050509392505050565b600082601f830112611ff957611ff8611eca565b5b8135612009848260208601611f7b565b91505092915050565b600080fd5b600067ffffffffffffffff82111561203257612031611ecf565b5b61203b82611e5e565b9050602081019050919050565b82818337600083830152505050565b600061206a61206584612017565b611f2f565b90508281526020810184848401111561208657612085612012565b5b612091848285612048565b509392505050565b600082601f8301126120ae576120ad611eca565b5b81356120be848260208601612057565b91505092915050565b600080600080600060a086880312156120e3576120e2611c28565b5b60006120f188828901611c7b565b955050602061210288828901611c7b565b945050604086013567ffffffffffffffff81111561212357612122611c2d565b5b61212f88828901611fe4565b935050606086013567ffffffffffffffff8111156121505761214f611c2d565b5b61215c88828901611fe4565b925050608086013567ffffffffffffffff81111561217d5761217c611c2d565b5b61218988828901612099565b9150509295509295909350565b600067ffffffffffffffff8211156121b1576121b0611ecf565b5b602082029050602081019050919050565b60006121d56121d084612196565b611f2f565b905080838252602082019050602084028301858111156121f8576121f7611f76565b5b835b81811015612221578061220d8882611c7b565b8452602084019350506020810190506121fa565b5050509392505050565b600082601f8301126122405761223f611eca565b5b81356122508482602086016121c2565b91505092915050565b600080604083850312156122705761226f611c28565b5b600083013567ffffffffffffffff81111561228e5761228d611c2d565b5b61229a8582860161222b565b925050602083013567ffffffffffffffff8111156122bb576122ba611c2d565b5b6122c785828601611fe4565b9150509250929050565b600081519050919050565b600082825260208201905092915050565b6000819050602082019050919050565b61230681611c90565b82525050565b600061231883836122fd565b60208301905092915050565b6000602082019050919050565b600061233c826122d1565b61234681856122dc565b9350612351836122ed565b8060005b83811015612382578151612369888261230c565b975061237483612324565b925050600181019050612355565b5085935050505092915050565b600060208201905081810360008301526123a98184612331565b905092915050565b6000806000606084860312156123ca576123c9611c28565b5b60006123d886828701611c7b565b935050602084013567ffffffffffffffff8111156123f9576123f8611c2d565b5b61240586828701611fe4565b925050604084013567ffffffffffffffff81111561242657612425611c2d565b5b61243286828701611fe4565b9150509250925092565b61244581611c52565b82525050565b6000602082019050612460600083018461243c565b92915050565b61246f81611db5565b811461247a57600080fd5b50565b60008135905061248c81612466565b92915050565b600080604083850312156124a9576124a8611c28565b5b60006124b785828601611c7b565b92505060206124c88582860161247d565b9150509250929050565b600080604083850312156124e9576124e8611c28565b5b60006124f785828601611c7b565b925050602061250885828601611c7b565b9150509250929050565b600080600080600060a0868803121561252e5761252d611c28565b5b600061253c88828901611c7b565b955050602061254d88828901611c7b565b945050604061255e88828901611cb1565b935050606061256f88828901611cb1565b925050608086013567ffffffffffffffff8111156125905761258f611c2d565b5b61259c88828901612099565b9150509295509295909350565b6000602082840312156125bf576125be611c28565b5b60006125cd84828501611c7b565b91505092915050565b6000806000606084860312156125ef576125ee611c28565b5b60006125fd86828701611c7b565b935050602061260e86828701611cb1565b925050604061261f86828701611cb1565b9150509250925092565b7f455243313135353a2061646472657373207a65726f206973206e6f742061207660008201527f616c6964206f776e657200000000000000000000000000000000000000000000602082015250565b6000612685602a83611e23565b915061269082612629565b604082019050919050565b600060208201905081810360008301526126b481612678565b9050919050565b7f4e487b7100000000000000000000000000000000000000000000000000000000600052602260045260246000fd5b6000600282049050600182168061270257607f821691505b602082108103612715576127146126bb565b5b50919050565b7f455243313135353a2063616c6c6572206973206e6f7420746f6b656e206f776e60008201527f6572206f7220617070726f766564000000000000000000000000000000000000602082015250565b6000612777602e83611e23565b91506127828261271b565b604082019050919050565b600060208201905081810360008301526127a68161276a565b9050919050565b7f455243313135353a206163636f756e747320616e6420696473206c656e67746860008201527f206d69736d617463680000000000000000000000000000000000000000000000602082015250565b6000612809602983611e23565b9150612814826127ad565b604082019050919050565b60006020820190508181036000830152612838816127fc565b9050919050565b7f4e487b7100000000000000000000000000000000000000000000000000000000600052603260045260246000fd5b7f4e487b7100000000000000000000000000000000000000000000000000000000600052601160045260246000fd5b60006128a882611c90565b91507fffffffffffffffffffffffffffffffffffffffffffffffffffffffffffffffff82036128da576128d961286e565b5b600182019050919050565b7f4f776e61626c653a206e6577206f776e657220697320746865207a65726f206160008201527f6464726573730000000000000000000000000000000000000000000000000000602082015250565b6000612941602683611e23565b915061294c826128e5565b604082019050919050565b6000602082019050818103600083015261297081612934565b9050919050565b7f455243313135353a2069647320616e6420616d6f756e7473206c656e6774682060008201527f6d69736d61746368000000000000000000000000000000000000000000000000602082015250565b60006129d3602883611e23565b91506129de82612977565b604082019050919050565b60006020820190508181036000830152612a02816129c6565b9050919050565b7f455243313135353a207472616e7366657220746f20746865207a65726f20616460008201527f6472657373000000000000000000000000000000000000000000000000000000602082015250565b6000612a65602583611e23565b9150612a7082612a09565b604082019050919050565b60006020820190508181036000830152612a9481612a58565b9050919050565b7f455243313135353a20696e73756666696369656e742062616c616e636520666f60008201527f72207472616e7366657200000000000000000000000000000000000000000000602082015250565b6000612af7602a83611e23565b9150612b0282612a9b565b604082019050919050565b60006020820190508181036000830152612b2681612aea565b9050919050565b6000612b3882611c90565b9150612b4383611c90565b9250828201905080821115612b5b57612b5a61286e565b5b92915050565b60006040820190508181036000830152612b7b8185612331565b90508181036020830152612b8f8184612331565b90509392505050565b7f455243313135353a206275726e2066726f6d20746865207a65726f206164647260008201527f6573730000000000000000000000000000000000000000000000000000000000602082015250565b6000612bf4602383611e23565b9150612bff82612b98565b604082019050919050565b60006020820190508181036000830152612c2381612be7565b9050919050565b7f455243313135353a206275726e20616d6f756e7420657863656564732062616c60008201527f616e636500000000000000000000000000000000000000000000000000000000602082015250565b6000612c86602483611e23565b9150612c9182612c2a565b604082019050919050565b60006020820190508181036000830152612cb581612c79565b9050919050565b7f4f776e61626c653a2063616c6c6572206973206e6f7420746865206f776e6572600082015250565b6000612cf2602083611e23565b9150612cfd82612cbc565b602082019050919050565b60006020820190508181036000830152612d2181612ce5565b9050919050565b7f455243313135353a2073657474696e6720617070726f76616c2073746174757360008201527f20666f722073656c660000000000000000000000000000000000000000000000602082015250565b6000612d84602983611e23565b9150612d8f82612d28565b604082019050919050565b60006020820190508181036000830152612db381612d77565b9050919050565b6000604082019050612dcf6000830185611d06565b612ddc6020830184611d06565b9392505050565b600081519050919050565b600082825260208201905092915050565b6000612e0a82612de3565b612e148185612dee565b9350612e24818560208601611e34565b612e2d81611e5e565b840191505092915050565b600060a082019050612e4d600083018861243c565b612e5a602083018761243c565b8181036040830152612e6c8186612331565b90508181036060830152612e808185612331565b90508181036080830152612e948184612dff565b90509695505050505050565b600081519050612eaf81611d5c565b92915050565b600060208284031215612ecb57612eca611c28565b5b6000612ed984828501612ea0565b91505092915050565b60008160e01c9050919050565b600060033d1115612f0e5760046000803e612f0b600051612ee2565b90505b90565b600060443d10612f9e57612f23611c1e565b60043d036004823e80513d602482011167ffffffffffffffff82111715612f4b575050612f9e565b808201805167ffffffffffffffff811115612f695750505050612f9e565b80602083010160043d038501811115612f86575050505050612f9e565b612f9582602001850186611efe565b82955050505050505b90565b7f455243313135353a207472616e7366657220746f206e6f6e2d4552433131353560008201527f526563656976657220696d706c656d656e746572000000000000000000000000602082015250565b6000612ffd603483611e23565b915061300882612fa1565b604082019050919050565b6000602082019050818103600083015261302c81612ff0565b9050919050565b7f455243313135353a204552433131353552656365697665722072656a6563746560008201527f6420746f6b656e73000000000000000000000000000000000000000000000000602082015250565b600061308f602883611e23565b915061309a82613033565b604082019050919050565b600060208201905081810360008301526130be81613082565b9050919050565b600060a0820190506130da600083018861243c565b6130e7602083018761243c565b6130f46040830186611d06565b6131016060830185611d06565b81810360808301526131138184612dff565b9050969550505050505056fea264697066735822122035b38f40ef778a3585b17a0665f44d48d291adb487721acbcc13d12027bc55de64736f6c63430008130033",
  "linkReferences": {},
  "deployedLinkReferences": {}
}