{
  "_format": "hh-sol-artifact-1",
  "contractName": "Contract",
  "sourceName": "contracts/Contract.sol",
  "abi": [
    {
      "anonymous": false,
      "inputs": [
        {
          "indexed": false,
          "internalType": "uint8",
          "name": "version",
          "type": "uint8"
        }
      ],
      "name": "Initialized",
      "type": "event"
    },
    {
      "anonymous": false,
      "inputs": [
        {
          "indexed": true,
          "internalType": "address",
          "name": "previousOwner",
          "type": "address"
        },
        {
          "indexed": true,
          "internalType": "address",
          "name": "newOwner",
          "type": "address"
        }
      ],
      "name": "OwnershipTransferred",
      "type": "event"
    },
    {
      "inputs": [],
      "name": "__Contract_init",
      "outputs": [],
      "stateMutability": "nonpayable",
      "type": "function"
    },
    {
      "inputs": [],
      "name": "owner",
      "outputs": [
        {
          "internalType": "address",
          "name": "",
          "type": "address"
        }
      ],
      "stateMutability": "view",
      "type": "function"
    },
    {
      "inputs": [],
      "name": "renounceOwnership",
      "outputs": [],
      "stateMutability": "nonpayable",
      "type": "function"
    },
    {
      "inputs": [
        {
          "internalType": "address",
          "name": "registryAddress",
          "type": "address"
        }
      ],
      "name": "setDependencies",
      "outputs": [],
      "stateMutability": "nonpayable",
      "type": "function"
    },
    {
      "inputs": [
        {
          "internalType": "address",
          "name": "newOwner",
          "type": "address"
        }
      ],
      "name": "transferOwnership",
      "outputs": [],
      "stateMutability": "nonpayable",
      "type": "function"
    }
  ],
  "bytecode": "0x608060405234801561001057600080fd5b50610889806100206000396000f3fe608060405234801561001057600080fd5b50600436106100575760003560e01c8063715018a61461005c5780638389cb18146100665780638da5cb5b14610082578063a3a1876a146100a0578063f2fde38b146100aa575b600080fd5b6100646100c6565b005b610080600480360381019061007b919061055c565b6100da565b005b61008a6100e5565b6040516100979190610598565b60405180910390f35b6100a861010f565b005b6100c460048036038101906100bf919061055c565b61024d565b005b6100ce6102d0565b6100d8600061034e565b565b6100e26102d0565b50565b6000603360009054906101000a900473ffffffffffffffffffffffffffffffffffffffff16905090565b60008060019054906101000a900460ff161590508080156101405750600160008054906101000a900460ff1660ff16105b8061016d575061014f30610414565b15801561016c5750600160008054906101000a900460ff1660ff16145b5b6101ac576040517f08c379a00000000000000000000000000000000000000000000000000000000081526004016101a390610636565b60405180910390fd5b60016000806101000a81548160ff021916908360ff16021790555080156101e9576001600060016101000a81548160ff0219169083151502179055505b6101f1610437565b801561024a5760008060016101000a81548160ff0219169083151502179055507f7f26b83ff96e1f2b6a682f133852f6798a09c465da95921460cefb3847402498600160405161024191906106a8565b60405180910390a15b50565b6102556102d0565b600073ffffffffffffffffffffffffffffffffffffffff168173ffffffffffffffffffffffffffffffffffffffff16036102c4576040517f08c379a00000000000000000000000000000000000000000000000000000000081526004016102bb90610735565b60405180910390fd5b6102cd8161034e565b50565b6102d8610490565b73ffffffffffffffffffffffffffffffffffffffff166102f66100e5565b73ffffffffffffffffffffffffffffffffffffffff161461034c576040517f08c379a0000000000000000000000000000000000000000000000000000000008152600401610343906107a1565b60405180910390fd5b565b6000603360009054906101000a900473ffffffffffffffffffffffffffffffffffffffff16905081603360006101000a81548173ffffffffffffffffffffffffffffffffffffffff021916908373ffffffffffffffffffffffffffffffffffffffff1602179055508173ffffffffffffffffffffffffffffffffffffffff168173ffffffffffffffffffffffffffffffffffffffff167f8be0079c531659141344cd1fd0a4f28419497f9722a3daafe3b4186f6b6457e060405160405180910390a35050565b6000808273ffffffffffffffffffffffffffffffffffffffff163b119050919050565b600060019054906101000a900460ff16610486576040517f08c379a000000000000000000000000000000000000000000000000000000000815260040161047d90610833565b60405180910390fd5b61048e610498565b565b600033905090565b600060019054906101000a900460ff166104e7576040517f08c379a00000000000000000000000000000000000000000000000000000000081526004016104de90610833565b60405180910390fd5b6104f76104f2610490565b61034e565b565b600080fd5b600073ffffffffffffffffffffffffffffffffffffffff82169050919050565b6000610529826104fe565b9050919050565b6105398161051e565b811461054457600080fd5b50565b60008135905061055681610530565b92915050565b600060208284031215610572576105716104f9565b5b600061058084828501610547565b91505092915050565b6105928161051e565b82525050565b60006020820190506105ad6000830184610589565b92915050565b600082825260208201905092915050565b7f496e697469616c697a61626c653a20636f6e747261637420697320616c72656160008201527f647920696e697469616c697a6564000000000000000000000000000000000000602082015250565b6000610620602e836105b3565b915061062b826105c4565b604082019050919050565b6000602082019050818103600083015261064f81610613565b9050919050565b6000819050919050565b600060ff82169050919050565b6000819050919050565b600061069261068d61068884610656565b61066d565b610660565b9050919050565b6106a281610677565b82525050565b60006020820190506106bd6000830184610699565b92915050565b7f4f776e61626c653a206e6577206f776e657220697320746865207a65726f206160008201527f6464726573730000000000000000000000000000000000000000000000000000602082015250565b600061071f6026836105b3565b915061072a826106c3565b604082019050919050565b6000602082019050818103600083015261074e81610712565b9050919050565b7f4f776e61626c653a2063616c6c6572206973206e6f7420746865206f776e6572600082015250565b600061078b6020836105b3565b915061079682610755565b602082019050919050565b600060208201905081810360008301526107ba8161077e565b9050919050565b7f496e697469616c697a61626c653a20636f6e7472616374206973206e6f74206960008201527f6e697469616c697a696e67000000000000000000000000000000000000000000602082015250565b600061081d602b836105b3565b9150610828826107c1565b604082019050919050565b6000602082019050818103600083015261084c81610810565b905091905056fea26469706673582212202bb8abef5e0ea7ea4719433dbba307b17e40eb77ba16682d479e3e39b52cc0a364736f6c63430008130033",
  "linkReferences": {},
  "deployedLinkReferences": {}
}