{
  "_format": "hh-sol-artifact-1",
  "contractName": "Registry",
  "sourceName": "contracts/Registry.sol",
  "abi": [
    {
      "inputs": [],
      "stateMutability": "nonpayable",
      "type": "constructor"
    },
    {
      "anonymous": false,
      "inputs": [
        {
          "indexed": true,
          "internalType": "address",
          "name": "previousOwner",
          "type": "address"
        },
        {
          "indexed": true,
          "internalType": "address",
          "name": "newOwner",
          "type": "address"
        }
      ],
      "name": "OwnershipTransferred",
      "type": "event"
    },
    {
      "inputs": [
        {
          "internalType": "string",
          "name": "name",
          "type": "string"
        },
        {
          "internalType": "address",
          "name": "contractAddress",
          "type": "address"
        }
      ],
      "name": "addContract",
      "outputs": [],
      "stateMutability": "nonpayable",
      "type": "function"
    },
    {
      "inputs": [
        {
          "internalType": "string",
          "name": "name",
          "type": "string"
        },
        {
          "internalType": "address",
          "name": "contractAddress",
          "type": "address"
        }
      ],
      "name": "addProxyContract",
      "outputs": [],
      "stateMutability": "nonpayable",
      "type": "function"
    },
    {
      "inputs": [
        {
          "internalType": "string",
          "name": "name",
          "type": "string"
        }
      ],
      "name": "deleteContract",
      "outputs": [],
      "stateMutability": "nonpayable",
      "type": "function"
    },
    {
      "inputs": [
        {
          "internalType": "string",
          "name": "name",
          "type": "string"
        }
      ],
      "name": "getContract",
      "outputs": [
        {
          "internalType": "address",
          "name": "",
          "type": "address"
        }
      ],
      "stateMutability": "view",
      "type": "function"
    },
    {
      "inputs": [
        {
          "internalType": "string",
          "name": "name",
          "type": "string"
        }
      ],
      "name": "getImplementation",
      "outputs": [
        {
          "internalType": "address",
          "name": "",
          "type": "address"
        }
      ],
      "stateMutability": "view",
      "type": "function"
    },
    {
      "inputs": [],
      "name": "getUpgrader",
      "outputs": [
        {
          "internalType": "address",
          "name": "",
          "type": "address"
        }
      ],
      "stateMutability": "view",
      "type": "function"
    },
    {
      "inputs": [
        {
          "internalType": "string",
          "name": "name",
          "type": "string"
        }
      ],
      "name": "hasContract",
      "outputs": [
        {
          "internalType": "bool",
          "name": "",
          "type": "bool"
        }
      ],
      "stateMutability": "view",
      "type": "function"
    },
    {
      "inputs": [],
      "name": "owner",
      "outputs": [
        {
          "internalType": "address",
          "name": "",
          "type": "address"
        }
      ],
      "stateMutability": "view",
      "type": "function"
    },
    {
      "inputs": [],
      "name": "renounceOwnership",
      "outputs": [],
      "stateMutability": "nonpayable",
      "type": "function"
    },
    {
      "inputs": [
        {
          "internalType": "address",
          "name": "newOwner",
          "type": "address"
        }
      ],
      "name": "transferOwnership",
      "outputs": [],
      "stateMutability": "nonpayable",
      "type": "function"
    },
    {
      "inputs": [
        {
          "internalType": "string",
          "name": "name",
          "type": "string"
        },
        {
          "internalType": "address",
          "name": "newImplementation",
          "type": "address"
        }
      ],
      "name": "upgradeContract",
      "outputs": [],
      "stateMutability": "nonpayable",
      "type": "function"
    },
    {
      "inputs": [
        {
          "internalType": "string",
          "name": "name",
          "type": "string"
        },
        {
          "internalType": "address",
          "name": "newImplementation",
          "type": "address"
        },
        {
          "internalType": "string",
          "name": "functionSignature",
          "type": "string"
        }
      ],
      "name": "upgradeContractAndCall",
      "outputs": [],
      "stateMutability": "nonpayable",
      "type": "function"
    }
  ],
  "bytecode": "0x60806040523480156200001157600080fd5b506200003262000026620000a460201b60201c565b620000ac60201b60201c565b604051620000409062000170565b604051809103906000f0801580156200005d573d6000803e3d6000fd5b50600160006101000a81548173ffffffffffffffffffffffffffffffffffffffff021916908373ffffffffffffffffffffffffffffffffffffffff1602179055506200017e565b600033905090565b60008060009054906101000a900473ffffffffffffffffffffffffffffffffffffffff169050816000806101000a81548173ffffffffffffffffffffffffffffffffffffffff021916908373ffffffffffffffffffffffffffffffffffffffff1602179055508173ffffffffffffffffffffffffffffffffffffffff168173ffffffffffffffffffffffffffffffffffffffff167f8be0079c531659141344cd1fd0a4f28419497f9722a3daafe3b4186f6b6457e060405160405180910390a35050565b61098d806200350f83390190565b613381806200018e6000396000f3fe60806040523480156200001157600080fd5b5060043610620000c45760003560e01c8063be888b7c116200007b578063be888b7c14620001b9578063bf5b601614620001d9578063c8276d7514620001f9578063e0e084f81462000219578063e4d7437b1462000239578063f2fde38b146200025b57620000c4565b80631271bd5314620000c95780633581777314620000e95780636b683896146200011f578063715018a614620001555780638c22360114620001615780638da5cb5b1462000197575b600080fd5b620000e76004803603810190620000e19190620011a6565b6200027b565b005b6200010760048036038101906200010191906200120c565b620002a5565b6040516200011691906200126e565b60405180910390f35b6200013d60048036038101906200013791906200120c565b620003a0565b6040516200014c91906200126e565b60405180910390f35b6200015f62000590565b005b6200017f60048036038101906200017991906200120c565b620005a8565b6040516200018e9190620012a8565b60405180910390f35b620001a162000621565b604051620001b091906200126e565b60405180910390f35b620001d76004803603810190620001d191906200120c565b6200064a565b005b620001f76004803603810190620001f19190620011a6565b6200074c565b005b6200021760048036038101906200021191906200132e565b6200082b565b005b620002376004803603810190620002319190620011a6565b6200088c565b005b6200024362000a25565b6040516200025291906200126e565b60405180910390f35b620002796004803603810190620002739190620013cd565b62000ae2565b005b6200028562000b6c565b620002a182826040518060200160405280600081525062000bf1565b5050565b60008073ffffffffffffffffffffffffffffffffffffffff16600283604051620002d0919062001478565b908152602001604051809103902060009054906101000a900473ffffffffffffffffffffffffffffffffffffffff1673ffffffffffffffffffffffffffffffffffffffff160362000358576040517f08c379a00000000000000000000000000000000000000000000000000000000081526004016200034f90620014f2565b60405180910390fd5b6002826040516200036a919062001478565b908152602001604051809103902060009054906101000a900473ffffffffffffffffffffffffffffffffffffffff169050919050565b600080600283604051620003b5919062001478565b908152602001604051809103902060009054906101000a900473ffffffffffffffffffffffffffffffffffffffff169050600073ffffffffffffffffffffffffffffffffffffffff168173ffffffffffffffffffffffffffffffffffffffff160362000458576040517f08c379a00000000000000000000000000000000000000000000000000000000081526004016200044f90620014f2565b60405180910390fd5b600360008273ffffffffffffffffffffffffffffffffffffffff1673ffffffffffffffffffffffffffffffffffffffff16815260200190815260200160002060009054906101000a900460ff16620004e7576040517f08c379a0000000000000000000000000000000000000000000000000000000008152600401620004de9062001564565b60405180910390fd5b600160009054906101000a900473ffffffffffffffffffffffffffffffffffffffff1673ffffffffffffffffffffffffffffffffffffffff166315ac72ca826040518263ffffffff1660e01b81526004016200054491906200126e565b602060405180830381865afa15801562000562573d6000803e3d6000fd5b505050506040513d601f19601f820116820180604052508101906200058891906200159d565b915050919050565b6200059a62000b6c565b620005a6600062000ef1565b565b60008073ffffffffffffffffffffffffffffffffffffffff16600283604051620005d3919062001478565b908152602001604051809103902060009054906101000a900473ffffffffffffffffffffffffffffffffffffffff1673ffffffffffffffffffffffffffffffffffffffff1614159050919050565b60008060009054906101000a900473ffffffffffffffffffffffffffffffffffffffff16905090565b6200065462000b6c565b600073ffffffffffffffffffffffffffffffffffffffff166002826040516200067e919062001478565b908152602001604051809103902060009054906101000a900473ffffffffffffffffffffffffffffffffffffffff1673ffffffffffffffffffffffffffffffffffffffff160362000706576040517f08c379a0000000000000000000000000000000000000000000000000000000008152600401620006fd90620014f2565b60405180910390fd5b60028160405162000718919062001478565b908152602001604051809103902060006101000a81549073ffffffffffffffffffffffffffffffffffffffff021916905550565b6200075662000b6c565b600073ffffffffffffffffffffffffffffffffffffffff168173ffffffffffffffffffffffffffffffffffffffff1603620007c8576040517f08c379a0000000000000000000000000000000000000000000000000000000008152600401620007bf906200161f565b60405180910390fd5b80600283604051620007db919062001478565b908152602001604051809103902060006101000a81548173ffffffffffffffffffffffffffffffffffffffff021916908373ffffffffffffffffffffffffffffffffffffffff1602179055505050565b6200083562000b6c565b62000886848484848080601f016020809104026020016040519081016040528093929190818152602001838380828437600081840152601f19601f8201169050808301925050505050505062000bf1565b50505050565b6200089662000b6c565b600073ffffffffffffffffffffffffffffffffffffffff168173ffffffffffffffffffffffffffffffffffffffff160362000908576040517f08c379a0000000000000000000000000000000000000000000000000000000008152600401620008ff906200161f565b60405180910390fd5b600081600160009054906101000a900473ffffffffffffffffffffffffffffffffffffffff166040516200093c9062000fbd565b620009499291906200167c565b604051809103906000f08015801562000966573d6000803e3d6000fd5b509050806002846040516200097c919062001478565b908152602001604051809103902060006101000a81548173ffffffffffffffffffffffffffffffffffffffff021916908373ffffffffffffffffffffffffffffffffffffffff1602179055506001600360008373ffffffffffffffffffffffffffffffffffffffff1673ffffffffffffffffffffffffffffffffffffffff16815260200190815260200160002060006101000a81548160ff021916908315150217905550505050565b60008073ffffffffffffffffffffffffffffffffffffffff16600160009054906101000a900473ffffffffffffffffffffffffffffffffffffffff1673ffffffffffffffffffffffffffffffffffffffff160362000aba576040517f08c379a000000000000000000000000000000000000000000000000000000000815260040162000ab1906200170e565b60405180910390fd5b600160009054906101000a900473ffffffffffffffffffffffffffffffffffffffff16905090565b62000aec62000b6c565b600073ffffffffffffffffffffffffffffffffffffffff168173ffffffffffffffffffffffffffffffffffffffff160362000b5e576040517f08c379a000000000000000000000000000000000000000000000000000000000815260040162000b5590620017a6565b60405180910390fd5b62000b698162000ef1565b50565b62000b7662000fb5565b73ffffffffffffffffffffffffffffffffffffffff1662000b9662000621565b73ffffffffffffffffffffffffffffffffffffffff161462000bef576040517f08c379a000000000000000000000000000000000000000000000000000000000815260040162000be69062001818565b60405180910390fd5b565b600060028460405162000c05919062001478565b908152602001604051809103902060009054906101000a900473ffffffffffffffffffffffffffffffffffffffff169050600073ffffffffffffffffffffffffffffffffffffffff168173ffffffffffffffffffffffffffffffffffffffff160362000ca8576040517f08c379a000000000000000000000000000000000000000000000000000000000815260040162000c9f90620014f2565b60405180910390fd5b600360008273ffffffffffffffffffffffffffffffffffffffff1673ffffffffffffffffffffffffffffffffffffffff16815260200190815260200160002060009054906101000a900460ff1662000d37576040517f08c379a000000000000000000000000000000000000000000000000000000000815260040162000d2e9062001564565b60405180910390fd5b60008251111562000e5757600160009054906101000a900473ffffffffffffffffffffffffffffffffffffffff1673ffffffffffffffffffffffffffffffffffffffff16639623609d8285856040516024016040516020818303038152906040529060405162000da8919062001478565b60405180910390207bffffffffffffffffffffffffffffffffffffffffffffffffffffffff19166020820180517bffffffffffffffffffffffffffffffffffffffffffffffffffffffff83818316178352505050506040518463ffffffff1660e01b815260040162000e1d9392919062001886565b600060405180830381600087803b15801562000e3857600080fd5b505af115801562000e4d573d6000803e3d6000fd5b5050505062000eeb565b600160009054906101000a900473ffffffffffffffffffffffffffffffffffffffff1673ffffffffffffffffffffffffffffffffffffffff166399a88ec482856040518363ffffffff1660e01b815260040162000eb6929190620018ca565b600060405180830381600087803b15801562000ed157600080fd5b505af115801562000ee6573d6000803e3d6000fd5b505050505b50505050565b60008060009054906101000a900473ffffffffffffffffffffffffffffffffffffffff169050816000806101000a81548173ffffffffffffffffffffffffffffffffffffffff021916908373ffffffffffffffffffffffffffffffffffffffff1602179055508173ffffffffffffffffffffffffffffffffffffffff168173ffffffffffffffffffffffffffffffffffffffff167f8be0079c531659141344cd1fd0a4f28419497f9722a3daafe3b4186f6b6457e060405160405180910390a35050565b600033905090565b611a5480620018f883390190565b6000604051905090565b600080fd5b600080fd5b600080fd5b600080fd5b6000601f19601f8301169050919050565b7f4e487b7100000000000000000000000000000000000000000000000000000000600052604160045260246000fd5b620010348262000fe9565b810181811067ffffffffffffffff8211171562001056576200105562000ffa565b5b80604052505050565b60006200106b62000fcb565b905062001079828262001029565b919050565b600067ffffffffffffffff8211156200109c576200109b62000ffa565b5b620010a78262000fe9565b9050602081019050919050565b82818337600083830152505050565b6000620010da620010d4846200107e565b6200105f565b905082815260208101848484011115620010f957620010f862000fe4565b5b62001106848285620010b4565b509392505050565b600082601f83011262001126576200112562000fdf565b5b813562001138848260208601620010c3565b91505092915050565b600073ffffffffffffffffffffffffffffffffffffffff82169050919050565b60006200116e8262001141565b9050919050565b620011808162001161565b81146200118c57600080fd5b50565b600081359050620011a08162001175565b92915050565b60008060408385031215620011c057620011bf62000fd5565b5b600083013567ffffffffffffffff811115620011e157620011e062000fda565b5b620011ef858286016200110e565b925050602062001202858286016200118f565b9150509250929050565b60006020828403121562001225576200122462000fd5565b5b600082013567ffffffffffffffff81111562001246576200124562000fda565b5b62001254848285016200110e565b91505092915050565b620012688162001161565b82525050565b60006020820190506200128560008301846200125d565b92915050565b60008115159050919050565b620012a2816200128b565b82525050565b6000602082019050620012bf600083018462001297565b92915050565b600080fd5b600080fd5b60008083601f840112620012e857620012e762000fdf565b5b8235905067ffffffffffffffff811115620013085762001307620012c5565b5b602083019150836001820283011115620013275762001326620012ca565b5b9250929050565b600080600080606085870312156200134b576200134a62000fd5565b5b600085013567ffffffffffffffff8111156200136c576200136b62000fda565b5b6200137a878288016200110e565b94505060206200138d878288016200118f565b935050604085013567ffffffffffffffff811115620013b157620013b062000fda565b5b620013bf87828801620012cf565b925092505092959194509250565b600060208284031215620013e657620013e562000fd5565b5b6000620013f6848285016200118f565b91505092915050565b600081519050919050565b600081905092915050565b60005b838110156200143557808201518184015260208101905062001418565b60008484015250505050565b60006200144e82620013ff565b6200145a81856200140a565b93506200146c81856020860162001415565b80840191505092915050565b600062001486828462001441565b915081905092915050565b600082825260208201905092915050565b7f4e6f206d617070696e6700000000000000000000000000000000000000000000600082015250565b6000620014da600a8362001491565b9150620014e782620014a2565b602082019050919050565b600060208201905081810360008301526200150d81620014cb565b9050919050565b7f4e6f7420612070726f7879000000000000000000000000000000000000000000600082015250565b60006200154c600b8362001491565b9150620015598262001514565b602082019050919050565b600060208201905081810360008301526200157f816200153d565b9050919050565b600081519050620015978162001175565b92915050565b600060208284031215620015b657620015b562000fd5565b5b6000620015c68482850162001586565b91505092915050565b7f57726f6e67206164647265737300000000000000000000000000000000000000600082015250565b600062001607600d8362001491565b91506200161482620015cf565b602082019050919050565b600060208201905081810360008301526200163a81620015f8565b9050919050565b600082825260208201905092915050565b50565b60006200166460008362001641565b9150620016718262001652565b600082019050919050565b60006060820190506200169360008301856200125d565b620016a260208301846200125d565b8181036040830152620016b58162001655565b90509392505050565b7f57726f6e67207570677261646572000000000000000000000000000000000000600082015250565b6000620016f6600e8362001491565b91506200170382620016be565b602082019050919050565b600060208201905081810360008301526200172981620016e7565b9050919050565b7f4f776e61626c653a206e6577206f776e657220697320746865207a65726f206160008201527f6464726573730000000000000000000000000000000000000000000000000000602082015250565b60006200178e60268362001491565b91506200179b8262001730565b604082019050919050565b60006020820190508181036000830152620017c1816200177f565b9050919050565b7f4f776e61626c653a2063616c6c6572206973206e6f7420746865206f776e6572600082015250565b60006200180060208362001491565b91506200180d82620017c8565b602082019050919050565b600060208201905081810360008301526200183381620017f1565b9050919050565b600081519050919050565b600062001852826200183a565b6200185e818562001641565b93506200187081856020860162001415565b6200187b8162000fe9565b840191505092915050565b60006060820190506200189d60008301866200125d565b620018ac60208301856200125d565b8181036040830152620018c0818462001845565b9050949350505050565b6000604082019050620018e160008301856200125d565b620018f060208301846200125d565b939250505056fe608060405260405162001a5438038062001a5483398181016040528101906200002991906200072f565b82816200003f828260006200005b60201b60201c565b505062000052826200009960201b60201c565b50505062000a71565b6200006c83620000f760201b60201c565b6000825111806200007a5750805b1562000094576200009283836200014e60201b60201c565b505b505050565b7f7e644d79422f17c01e4894b5f4f588d331ebfa28653d42ae832dc59e38c9798f620000ca6200018460201b60201c565b82604051620000db929190620007bb565b60405180910390a1620000f481620001e360201b60201c565b50565b6200010881620002ce60201b60201c565b8073ffffffffffffffffffffffffffffffffffffffff167fbc7cd75a20ee27fd9adebab32041f755214dbc6bffa90cc0225b39da2e5c2d3b60405160405180910390a250565b60606200017c838360405180606001604052806027815260200162001a2d602791396200039a60201b60201c565b905092915050565b6000620001ba7fb53127684a568b3173ae13b9f8a6016e243e63b6e8ee1178d6a717850b5d610360001b6200042c60201b60201c565b60000160009054906101000a900473ffffffffffffffffffffffffffffffffffffffff16905090565b600073ffffffffffffffffffffffffffffffffffffffff168173ffffffffffffffffffffffffffffffffffffffff160362000255576040517f08c379a00000000000000000000000000000000000000000000000000000000081526004016200024c906200086f565b60405180910390fd5b806200028a7fb53127684a568b3173ae13b9f8a6016e243e63b6e8ee1178d6a717850b5d610360001b6200042c60201b60201c565b60000160006101000a81548173ffffffffffffffffffffffffffffffffffffffff021916908373ffffffffffffffffffffffffffffffffffffffff16021790555050565b620002df816200043660201b60201c565b62000321576040517f08c379a0000000000000000000000000000000000000000000000000000000008152600401620003189062000907565b60405180910390fd5b80620003567f360894a13ba1a3210667c828492db98dca3e2076cc3735a920a3ca505d382bbc60001b6200042c60201b60201c565b60000160006101000a81548173ffffffffffffffffffffffffffffffffffffffff021916908373ffffffffffffffffffffffffffffffffffffffff16021790555050565b60606000808573ffffffffffffffffffffffffffffffffffffffff1685604051620003c6919062000976565b600060405180830381855af49150503d806000811462000403576040519150601f19603f3d011682016040523d82523d6000602084013e62000408565b606091505b509150915062000421868383876200045960201b60201c565b925050509392505050565b6000819050919050565b6000808273ffffffffffffffffffffffffffffffffffffffff163b119050919050565b60608315620004c9576000835103620004c0576200047d856200043660201b60201c565b620004bf576040517f08c379a0000000000000000000000000000000000000000000000000000000008152600401620004b690620009df565b60405180910390fd5b5b829050620004dc565b620004db8383620004e460201b60201c565b5b949350505050565b600082511115620004f85781518083602001fd5b806040517f08c379a00000000000000000000000000000000000000000000000000000000081526004016200052e919062000a4d565b60405180910390fd5b6000604051905090565b600080fd5b600080fd5b600073ffffffffffffffffffffffffffffffffffffffff82169050919050565b600062000578826200054b565b9050919050565b6200058a816200056b565b81146200059657600080fd5b50565b600081519050620005aa816200057f565b92915050565b600080fd5b600080fd5b6000601f19601f8301169050919050565b7f4e487b7100000000000000000000000000000000000000000000000000000000600052604160045260246000fd5b6200060582620005ba565b810181811067ffffffffffffffff82111715620006275762000626620005cb565b5b80604052505050565b60006200063c62000537565b90506200064a8282620005fa565b919050565b600067ffffffffffffffff8211156200066d576200066c620005cb565b5b6200067882620005ba565b9050602081019050919050565b60005b83811015620006a557808201518184015260208101905062000688565b60008484015250505050565b6000620006c8620006c2846200064f565b62000630565b905082815260208101848484011115620006e757620006e6620005b5565b5b620006f484828562000685565b509392505050565b600082601f830112620007145762000713620005b0565b5b815162000726848260208601620006b1565b91505092915050565b6000806000606084860312156200074b576200074a62000541565b5b60006200075b8682870162000599565b93505060206200076e8682870162000599565b925050604084015167ffffffffffffffff81111562000792576200079162000546565b5b620007a086828701620006fc565b9150509250925092565b620007b5816200056b565b82525050565b6000604082019050620007d26000830185620007aa565b620007e16020830184620007aa565b9392505050565b600082825260208201905092915050565b7f455243313936373a206e65772061646d696e20697320746865207a65726f206160008201527f6464726573730000000000000000000000000000000000000000000000000000602082015250565b600062000857602683620007e8565b91506200086482620007f9565b604082019050919050565b600060208201905081810360008301526200088a8162000848565b9050919050565b7f455243313936373a206e657720696d706c656d656e746174696f6e206973206e60008201527f6f74206120636f6e747261637400000000000000000000000000000000000000602082015250565b6000620008ef602d83620007e8565b9150620008fc8262000891565b604082019050919050565b600060208201905081810360008301526200092281620008e0565b9050919050565b600081519050919050565b600081905092915050565b60006200094c8262000929565b62000958818562000934565b93506200096a81856020860162000685565b80840191505092915050565b60006200098482846200093f565b915081905092915050565b7f416464726573733a2063616c6c20746f206e6f6e2d636f6e7472616374000000600082015250565b6000620009c7601d83620007e8565b9150620009d4826200098f565b602082019050919050565b60006020820190508181036000830152620009fa81620009b8565b9050919050565b600081519050919050565b600062000a198262000a01565b62000a258185620007e8565b935062000a3781856020860162000685565b62000a4281620005ba565b840191505092915050565b6000602082019050818103600083015262000a69818462000a0c565b905092915050565b610fac8062000a816000396000f3fe6080604052366100135761001161001d565b005b61001b61001d565b005b610025610299565b73ffffffffffffffffffffffffffffffffffffffff163373ffffffffffffffffffffffffffffffffffffffff160361028f576060600080357fffffffff00000000000000000000000000000000000000000000000000000000169050633659cfe660e01b7bffffffffffffffffffffffffffffffffffffffffffffffffffffffff1916817bffffffffffffffffffffffffffffffffffffffffffffffffffffffff1916036100dc576100d56102f0565b9150610287565b634f1ef28660e01b7bffffffffffffffffffffffffffffffffffffffffffffffffffffffff1916817bffffffffffffffffffffffffffffffffffffffffffffffffffffffff1916036101375761013061034f565b9150610286565b638f28397060e01b7bffffffffffffffffffffffffffffffffffffffffffffffffffffffff1916817bffffffffffffffffffffffffffffffffffffffffffffffffffffffff1916036101925761018b61039c565b9150610285565b63f851a44060e01b7bffffffffffffffffffffffffffffffffffffffffffffffffffffffff1916817bffffffffffffffffffffffffffffffffffffffffffffffffffffffff1916036101ed576101e66103e9565b9150610284565b635c60da1b60e01b7bffffffffffffffffffffffffffffffffffffffffffffffffffffffff1916817bffffffffffffffffffffffffffffffffffffffffffffffffffffffff19160361024857610241610425565b9150610283565b6040517f08c379a000000000000000000000000000000000000000000000000000000000815260040161027a906109c6565b60405180910390fd5b5b5b5b5b815160208301f35b610297610461565b565b60006102c77fb53127684a568b3173ae13b9f8a6016e243e63b6e8ee1178d6a717850b5d610360001b61047b565b60000160009054906101000a900473ffffffffffffffffffffffffffffffffffffffff16905090565b60606102fa610485565b60008036600490809261030f939291906109fa565b81019061031c9190610a9d565b905061033981604051806020016040528060008152506000610494565b6040518060200160405280600081525091505090565b60606000806000366004908092610368939291906109fa565b8101906103759190610c10565b9150915061038582826001610494565b604051806020016040528060008152509250505090565b60606103a6610485565b6000803660049080926103bb939291906109fa565b8101906103c89190610a9d565b90506103d3816104c0565b6040518060200160405280600081525091505090565b60606103f3610485565b60006103fd610299565b9050806040516020016104109190610c8d565b60405160208183030381529060405291505090565b606061042f610485565b600061043961050c565b90508060405160200161044c9190610c8d565b60405160208183030381529060405291505090565b61046961051b565b61047961047461050c565b61051d565b565b6000819050919050565b6000341461049257600080fd5b565b61049d83610543565b6000825111806104aa5750805b156104bb576104b98383610592565b505b505050565b7f7e644d79422f17c01e4894b5f4f588d331ebfa28653d42ae832dc59e38c9798f6104e9610299565b826040516104f8929190610ca8565b60405180910390a1610509816105bf565b50565b600061051661069f565b905090565b565b3660008037600080366000845af43d6000803e806000811461053e573d6000f35b3d6000fd5b61054c816106f6565b8073ffffffffffffffffffffffffffffffffffffffff167fbc7cd75a20ee27fd9adebab32041f755214dbc6bffa90cc0225b39da2e5c2d3b60405160405180910390a250565b60606105b78383604051806060016040528060278152602001610f50602791396107af565b905092915050565b600073ffffffffffffffffffffffffffffffffffffffff168173ffffffffffffffffffffffffffffffffffffffff160361062e576040517f08c379a000000000000000000000000000000000000000000000000000000000815260040161062590610d43565b60405180910390fd5b8061065b7fb53127684a568b3173ae13b9f8a6016e243e63b6e8ee1178d6a717850b5d610360001b61047b565b60000160006101000a81548173ffffffffffffffffffffffffffffffffffffffff021916908373ffffffffffffffffffffffffffffffffffffffff16021790555050565b60006106cd7f360894a13ba1a3210667c828492db98dca3e2076cc3735a920a3ca505d382bbc60001b61047b565b60000160009054906101000a900473ffffffffffffffffffffffffffffffffffffffff16905090565b6106ff81610835565b61073e576040517f08c379a000000000000000000000000000000000000000000000000000000000815260040161073590610dd5565b60405180910390fd5b8061076b7f360894a13ba1a3210667c828492db98dca3e2076cc3735a920a3ca505d382bbc60001b61047b565b60000160006101000a81548173ffffffffffffffffffffffffffffffffffffffff021916908373ffffffffffffffffffffffffffffffffffffffff16021790555050565b60606000808573ffffffffffffffffffffffffffffffffffffffff16856040516107d99190610e66565b600060405180830381855af49150503d8060008114610814576040519150601f19603f3d011682016040523d82523d6000602084013e610819565b606091505b509150915061082a86838387610858565b925050509392505050565b6000808273ffffffffffffffffffffffffffffffffffffffff163b119050919050565b606083156108ba5760008351036108b25761087285610835565b6108b1576040517f08c379a00000000000000000000000000000000000000000000000000000000081526004016108a890610ec9565b60405180910390fd5b5b8290506108c5565b6108c483836108cd565b5b949350505050565b6000825111156108e05781518083602001fd5b806040517f08c379a00000000000000000000000000000000000000000000000000000000081526004016109149190610f2d565b60405180910390fd5b600082825260208201905092915050565b7f5472616e73706172656e745570677261646561626c6550726f78793a2061646d60008201527f696e2063616e6e6f742066616c6c6261636b20746f2070726f7879207461726760208201527f6574000000000000000000000000000000000000000000000000000000000000604082015250565b60006109b060428361091d565b91506109bb8261092e565b606082019050919050565b600060208201905081810360008301526109df816109a3565b9050919050565b6000604051905090565b600080fd5b600080fd5b60008085851115610a0e57610a0d6109f0565b5b83861115610a1f57610a1e6109f5565b5b6001850283019150848603905094509492505050565b600080fd5b600080fd5b600073ffffffffffffffffffffffffffffffffffffffff82169050919050565b6000610a6a82610a3f565b9050919050565b610a7a81610a5f565b8114610a8557600080fd5b50565b600081359050610a9781610a71565b92915050565b600060208284031215610ab357610ab2610a35565b5b6000610ac184828501610a88565b91505092915050565b600080fd5b600080fd5b6000601f19601f8301169050919050565b7f4e487b7100000000000000000000000000000000000000000000000000000000600052604160045260246000fd5b610b1d82610ad4565b810181811067ffffffffffffffff82111715610b3c57610b3b610ae5565b5b80604052505050565b6000610b4f6109e6565b9050610b5b8282610b14565b919050565b600067ffffffffffffffff821115610b7b57610b7a610ae5565b5b610b8482610ad4565b9050602081019050919050565b82818337600083830152505050565b6000610bb3610bae84610b60565b610b45565b905082815260208101848484011115610bcf57610bce610acf565b5b610bda848285610b91565b509392505050565b600082601f830112610bf757610bf6610aca565b5b8135610c07848260208601610ba0565b91505092915050565b60008060408385031215610c2757610c26610a35565b5b6000610c3585828601610a88565b925050602083013567ffffffffffffffff811115610c5657610c55610a3a565b5b610c6285828601610be2565b9150509250929050565b6000610c7782610a3f565b9050919050565b610c8781610c6c565b82525050565b6000602082019050610ca26000830184610c7e565b92915050565b6000604082019050610cbd6000830185610c7e565b610cca6020830184610c7e565b9392505050565b7f455243313936373a206e65772061646d696e20697320746865207a65726f206160008201527f6464726573730000000000000000000000000000000000000000000000000000602082015250565b6000610d2d60268361091d565b9150610d3882610cd1565b604082019050919050565b60006020820190508181036000830152610d5c81610d20565b9050919050565b7f455243313936373a206e657720696d706c656d656e746174696f6e206973206e60008201527f6f74206120636f6e747261637400000000000000000000000000000000000000602082015250565b6000610dbf602d8361091d565b9150610dca82610d63565b604082019050919050565b60006020820190508181036000830152610dee81610db2565b9050919050565b600081519050919050565b600081905092915050565b60005b83811015610e29578082015181840152602081019050610e0e565b60008484015250505050565b6000610e4082610df5565b610e4a8185610e00565b9350610e5a818560208601610e0b565b80840191505092915050565b6000610e728284610e35565b915081905092915050565b7f416464726573733a2063616c6c20746f206e6f6e2d636f6e7472616374000000600082015250565b6000610eb3601d8361091d565b9150610ebe82610e7d565b602082019050919050565b60006020820190508181036000830152610ee281610ea6565b9050919050565b600081519050919050565b6000610eff82610ee9565b610f09818561091d565b9350610f19818560208601610e0b565b610f2281610ad4565b840191505092915050565b60006020820190508181036000830152610f478184610ef4565b90509291505056fe416464726573733a206c6f772d6c6576656c2064656c65676174652063616c6c206661696c6564a26469706673582212202d61f23e6dd83feae6f88a6e32ac4469d9f11147fe81b626f4293097b5ce753d64736f6c63430008130033416464726573733a206c6f772d6c6576656c2064656c65676174652063616c6c206661696c6564a2646970667358221220141884f3ca532e4bb7d389b501d512333c4b1469e00a968324c6454aa7f0525a64736f6c63430008130033608060405234801561001057600080fd5b5061002d61002261003260201b60201c565b61003a60201b60201c565b6100fe565b600033905090565b60008060009054906101000a900473ffffffffffffffffffffffffffffffffffffffff169050816000806101000a81548173ffffffffffffffffffffffffffffffffffffffff021916908373ffffffffffffffffffffffffffffffffffffffff1602179055508173ffffffffffffffffffffffffffffffffffffffff168173ffffffffffffffffffffffffffffffffffffffff167f8be0079c531659141344cd1fd0a4f28419497f9722a3daafe3b4186f6b6457e060405160405180910390a35050565b6108808061010d6000396000f3fe608060405234801561001057600080fd5b50600436106100625760003560e01c806315ac72ca14610067578063715018a6146100975780638da5cb5b146100a15780639623609d146100bf57806399a88ec4146100db578063f2fde38b146100f7575b600080fd5b610081600480360381019061007c91906104f9565b610113565b60405161008e9190610535565b60405180910390f35b61009f610193565b005b6100a96101a7565b6040516100b69190610535565b60405180910390f35b6100d960048036038101906100d491906105b5565b6101d0565b005b6100f560048036038101906100f09190610629565b61024d565b005b610111600480360381019061010c91906104f9565b6102c4565b005b600061011d610347565b8173ffffffffffffffffffffffffffffffffffffffff16635c60da1b6040518163ffffffff1660e01b8152600401602060405180830381865afa158015610168573d6000803e3d6000fd5b505050506040513d601f19601f8201168201806040525081019061018c919061067e565b9050919050565b61019b610347565b6101a560006103c5565b565b60008060009054906101000a900473ffffffffffffffffffffffffffffffffffffffff16905090565b6101d8610347565b8373ffffffffffffffffffffffffffffffffffffffff16634f1ef2868484846040518463ffffffff1660e01b815260040161021593929190610709565b600060405180830381600087803b15801561022f57600080fd5b505af1158015610243573d6000803e3d6000fd5b5050505050505050565b610255610347565b8173ffffffffffffffffffffffffffffffffffffffff16633659cfe6826040518263ffffffff1660e01b815260040161028e9190610535565b600060405180830381600087803b1580156102a857600080fd5b505af11580156102bc573d6000803e3d6000fd5b505050505050565b6102cc610347565b600073ffffffffffffffffffffffffffffffffffffffff168173ffffffffffffffffffffffffffffffffffffffff160361033b576040517f08c379a0000000000000000000000000000000000000000000000000000000008152600401610332906107be565b60405180910390fd5b610344816103c5565b50565b61034f610489565b73ffffffffffffffffffffffffffffffffffffffff1661036d6101a7565b73ffffffffffffffffffffffffffffffffffffffff16146103c3576040517f08c379a00000000000000000000000000000000000000000000000000000000081526004016103ba9061082a565b60405180910390fd5b565b60008060009054906101000a900473ffffffffffffffffffffffffffffffffffffffff169050816000806101000a81548173ffffffffffffffffffffffffffffffffffffffff021916908373ffffffffffffffffffffffffffffffffffffffff1602179055508173ffffffffffffffffffffffffffffffffffffffff168173ffffffffffffffffffffffffffffffffffffffff167f8be0079c531659141344cd1fd0a4f28419497f9722a3daafe3b4186f6b6457e060405160405180910390a35050565b600033905090565b600080fd5b600080fd5b600073ffffffffffffffffffffffffffffffffffffffff82169050919050565b60006104c68261049b565b9050919050565b6104d6816104bb565b81146104e157600080fd5b50565b6000813590506104f3816104cd565b92915050565b60006020828403121561050f5761050e610491565b5b600061051d848285016104e4565b91505092915050565b61052f816104bb565b82525050565b600060208201905061054a6000830184610526565b92915050565b600080fd5b600080fd5b600080fd5b60008083601f84011261057557610574610550565b5b8235905067ffffffffffffffff81111561059257610591610555565b5b6020830191508360018202830111156105ae576105ad61055a565b5b9250929050565b600080600080606085870312156105cf576105ce610491565b5b60006105dd878288016104e4565b94505060206105ee878288016104e4565b935050604085013567ffffffffffffffff81111561060f5761060e610496565b5b61061b8782880161055f565b925092505092959194509250565b600080604083850312156106405761063f610491565b5b600061064e858286016104e4565b925050602061065f858286016104e4565b9150509250929050565b600081519050610678816104cd565b92915050565b60006020828403121561069457610693610491565b5b60006106a284828501610669565b91505092915050565b600082825260208201905092915050565b82818337600083830152505050565b6000601f19601f8301169050919050565b60006106e883856106ab565b93506106f58385846106bc565b6106fe836106cb565b840190509392505050565b600060408201905061071e6000830186610526565b81810360208301526107318184866106dc565b9050949350505050565b600082825260208201905092915050565b7f4f776e61626c653a206e6577206f776e657220697320746865207a65726f206160008201527f6464726573730000000000000000000000000000000000000000000000000000602082015250565b60006107a860268361073b565b91506107b38261074c565b604082019050919050565b600060208201905081810360008301526107d78161079b565b9050919050565b7f4f776e61626c653a2063616c6c6572206973206e6f7420746865206f776e6572600082015250565b600061081460208361073b565b915061081f826107de565b602082019050919050565b6000602082019050818103600083015261084381610807565b905091905056fea2646970667358221220488cf46171b32473e8242e62d2ee8509315b607c3c35e4b8b5cb362128edac4b64736f6c63430008130033",
  "linkReferences": {},
  "deployedLinkReferences": {}
}