{
  "_format": "hh-sol-artifact-1",
  "contractName": "ERC721H",
  "sourceName": "contracts/tokens/ERC721H.sol",
  "abi": [
    {
      "inputs": [
        {
          "internalType": "string",
          "name": "name",
          "type": "string"
        },
        {
          "internalType": "string",
          "name": "symbol",
          "type": "string"
        }
      ],
      "stateMutability": "nonpayable",
      "type": "constructor"
    },
    {
      "anonymous": false,
      "inputs": [
        {
          "indexed": true,
          "internalType": "address",
          "name": "owner",
          "type": "address"
        },
        {
          "indexed": true,
          "internalType": "address",
          "name": "approved",
          "type": "address"
        },
        {
          "indexed": true,
          "internalType": "uint256",
          "name": "tokenId",
          "type": "uint256"
        }
      ],
      "name": "Approval",
      "type": "event"
    },
    {
      "anonymous": false,
      "inputs": [
        {
          "indexed": true,
          "internalType": "address",
          "name": "owner",
          "type": "address"
        },
        {
          "indexed": true,
          "internalType": "address",
          "name": "operator",
          "type": "address"
        },
        {
          "indexed": false,
          "internalType": "bool",
          "name": "approved",
          "type": "bool"
        }
      ],
      "name": "ApprovalForAll",
      "type": "event"
    },
    {
      "anonymous": false,
      "inputs": [
        {
          "indexed": true,
          "internalType": "address",
          "name": "from",
          "type": "address"
        },
        {
          "indexed": true,
          "internalType": "address",
          "name": "to",
          "type": "address"
        },
        {
          "indexed": true,
          "internalType": "uint256",
          "name": "tokenId",
          "type": "uint256"
        }
      ],
      "name": "Transfer",
      "type": "event"
    },
    {
      "inputs": [
        {
          "internalType": "address",
          "name": "to",
          "type": "address"
        },
        {
          "internalType": "uint256",
          "name": "tokenId",
          "type": "uint256"
        }
      ],
      "name": "approve",
      "outputs": [],
      "stateMutability": "nonpayable",
      "type": "function"
    },
    {
      "inputs": [
        {
          "internalType": "address",
          "name": "owner",
          "type": "address"
        }
      ],
      "name": "balanceOf",
      "outputs": [
        {
          "internalType": "uint256",
          "name": "",
          "type": "uint256"
        }
      ],
      "stateMutability": "view",
      "type": "function"
    },
    {
      "inputs": [
        {
          "internalType": "uint256",
          "name": "tokenId",
          "type": "uint256"
        }
      ],
      "name": "burn",
      "outputs": [],
      "stateMutability": "nonpayable",
      "type": "function"
    },
    {
      "inputs": [
        {
          "internalType": "uint256",
          "name": "tokenId",
          "type": "uint256"
        }
      ],
      "name": "getApproved",
      "outputs": [
        {
          "internalType": "address",
          "name": "",
          "type": "address"
        }
      ],
      "stateMutability": "view",
      "type": "function"
    },
    {
      "inputs": [
        {
          "internalType": "address",
          "name": "owner",
          "type": "address"
        },
        {
          "internalType": "address",
          "name": "operator",
          "type": "address"
        }
      ],
      "name": "isApprovedForAll",
      "outputs": [
        {
          "internalType": "bool",
          "name": "",
          "type": "bool"
        }
      ],
      "stateMutability": "view",
      "type": "function"
    },
    {
      "inputs": [],
      "name": "name",
      "outputs": [
        {
          "internalType": "string",
          "name": "",
          "type": "string"
        }
      ],
      "stateMutability": "view",
      "type": "function"
    },
    {
      "inputs": [
        {
          "internalType": "uint256",
          "name": "tokenId",
          "type": "uint256"
        }
      ],
      "name": "ownerOf",
      "outputs": [
        {
          "internalType": "address",
          "name": "",
          "type": "address"
        }
      ],
      "stateMutability": "view",
      "type": "function"
    },
    {
      "inputs": [
        {
          "internalType": "address",
          "name": "from",
          "type": "address"
        },
        {
          "internalType": "address",
          "name": "to",
          "type": "address"
        },
        {
          "internalType": "uint256",
          "name": "tokenId",
          "type": "uint256"
        }
      ],
      "name": "safeTransferFrom",
      "outputs": [],
      "stateMutability": "nonpayable",
      "type": "function"
    },
    {
      "inputs": [
        {
          "internalType": "address",
          "name": "from",
          "type": "address"
        },
        {
          "internalType": "address",
          "name": "to",
          "type": "address"
        },
        {
          "internalType": "uint256",
          "name": "tokenId",
          "type": "uint256"
        },
        {
          "internalType": "bytes",
          "name": "data",
          "type": "bytes"
        }
      ],
      "name": "safeTransferFrom",
      "outputs": [],
      "stateMutability": "nonpayable",
      "type": "function"
    },
    {
      "inputs": [
        {
          "internalType": "address",
          "name": "operator",
          "type": "address"
        },
        {
          "internalType": "bool",
          "name": "approved",
          "type": "bool"
        }
      ],
      "name": "setApprovalForAll",
      "outputs": [],
      "stateMutability": "nonpayable",
      "type": "function"
    },
    {
      "inputs": [
        {
          "internalType": "bytes4",
          "name": "interfaceId",
          "type": "bytes4"
        }
      ],
      "name": "supportsInterface",
      "outputs": [
        {
          "internalType": "bool",
          "name": "",
          "type": "bool"
        }
      ],
      "stateMutability": "view",
      "type": "function"
    },
    {
      "inputs": [],
      "name": "symbol",
      "outputs": [
        {
          "internalType": "string",
          "name": "",
          "type": "string"
        }
      ],
      "stateMutability": "view",
      "type": "function"
    },
    {
      "inputs": [
        {
          "internalType": "uint256",
          "name": "tokenId",
          "type": "uint256"
        }
      ],
      "name": "tokenURI",
      "outputs": [
        {
          "internalType": "string",
          "name": "",
          "type": "string"
        }
      ],
      "stateMutability": "view",
      "type": "function"
    },
    {
      "inputs": [
        {
          "internalType": "address",
          "name": "from",
          "type": "address"
        },
        {
          "internalType": "address",
          "name": "to",
          "type": "address"
        },
        {
          "internalType": "uint256",
          "name": "tokenId",
          "type": "uint256"
        }
      ],
      "name": "transferFrom",
      "outputs": [],
      "stateMutability": "nonpayable",
      "type": "function"
    }
  ],
  "bytecode": "0x60806040523480156200001157600080fd5b50604051620028c2380380620028c28339818101604052810190620000379190620001fa565b818181600090816200004a9190620004ca565b5080600190816200005c9190620004ca565b5050505050620005b1565b6000604051905090565b600080fd5b600080fd5b600080fd5b600080fd5b6000601f19601f8301169050919050565b7f4e487b7100000000000000000000000000000000000000000000000000000000600052604160045260246000fd5b620000d08262000085565b810181811067ffffffffffffffff82111715620000f257620000f162000096565b5b80604052505050565b60006200010762000067565b9050620001158282620000c5565b919050565b600067ffffffffffffffff82111562000138576200013762000096565b5b620001438262000085565b9050602081019050919050565b60005b838110156200017057808201518184015260208101905062000153565b60008484015250505050565b6000620001936200018d846200011a565b620000fb565b905082815260208101848484011115620001b257620001b162000080565b5b620001bf84828562000150565b509392505050565b600082601f830112620001df57620001de6200007b565b5b8151620001f18482602086016200017c565b91505092915050565b6000806040838503121562000214576200021362000071565b5b600083015167ffffffffffffffff81111562000235576200023462000076565b5b6200024385828601620001c7565b925050602083015167ffffffffffffffff81111562000267576200026662000076565b5b6200027585828601620001c7565b9150509250929050565b600081519050919050565b7f4e487b7100000000000000000000000000000000000000000000000000000000600052602260045260246000fd5b60006002820490506001821680620002d257607f821691505b602082108103620002e857620002e76200028a565b5b50919050565b60008190508160005260206000209050919050565b60006020601f8301049050919050565b600082821b905092915050565b600060088302620003527fffffffffffffffffffffffffffffffffffffffffffffffffffffffffffffffff8262000313565b6200035e868362000313565b95508019841693508086168417925050509392505050565b6000819050919050565b6000819050919050565b6000620003ab620003a56200039f8462000376565b62000380565b62000376565b9050919050565b6000819050919050565b620003c7836200038a565b620003df620003d682620003b2565b84845462000320565b825550505050565b600090565b620003f6620003e7565b62000403818484620003bc565b505050565b5b818110156200042b576200041f600082620003ec565b60018101905062000409565b5050565b601f8211156200047a576200044481620002ee565b6200044f8462000303565b810160208510156200045f578190505b620004776200046e8562000303565b83018262000408565b50505b505050565b600082821c905092915050565b60006200049f600019846008026200047f565b1980831691505092915050565b6000620004ba83836200048c565b9150826002028217905092915050565b620004d5826200027f565b67ffffffffffffffff811115620004f157620004f062000096565b5b620004fd8254620002b9565b6200050a8282856200042f565b600060209050601f8311600181146200054257600084156200052d578287015190505b620005398582620004ac565b865550620005a9565b601f1984166200055286620002ee565b60005b828110156200057c5784890151825560018201915060208501945060208101905062000555565b868310156200059c578489015162000598601f8916826200048c565b8355505b6001600288020188555050505b505050505050565b61230180620005c16000396000f3fe608060405234801561001057600080fd5b50600436106100ea5760003560e01c80636352211e1161008c578063a22cb46511610066578063a22cb4651461025b578063b88d4fde14610277578063c87b56dd14610293578063e985e9c5146102c3576100ea565b80636352211e146101dd57806370a082311461020d57806395d89b411461023d576100ea565b8063095ea7b3116100c8578063095ea7b31461016d57806323b872dd1461018957806342842e0e146101a557806342966c68146101c1576100ea565b806301ffc9a7146100ef57806306fdde031461011f578063081812fc1461013d575b600080fd5b610109600480360381019061010491906116d5565b6102f3565b604051610116919061171d565b60405180910390f35b6101276103d5565b60405161013491906117c8565b60405180910390f35b61015760048036038101906101529190611820565b610467565b604051610164919061188e565b60405180910390f35b610187600480360381019061018291906118d5565b6104ad565b005b6101a3600480360381019061019e9190611915565b6105c4565b005b6101bf60048036038101906101ba9190611915565b610624565b005b6101db60048036038101906101d69190611820565b610644565b005b6101f760048036038101906101f29190611820565b6106a0565b604051610204919061188e565b60405180910390f35b61022760048036038101906102229190611968565b610726565b60405161023491906119a4565b60405180910390f35b6102456107dd565b60405161025291906117c8565b60405180910390f35b610275600480360381019061027091906119eb565b61086f565b005b610291600480360381019061028c9190611b60565b610885565b005b6102ad60048036038101906102a89190611820565b6108e7565b6040516102ba91906117c8565b60405180910390f35b6102dd60048036038101906102d89190611be3565b61094f565b6040516102ea919061171d565b60405180910390f35b60007f80ac58cd000000000000000000000000000000000000000000000000000000007bffffffffffffffffffffffffffffffffffffffffffffffffffffffff1916827bffffffffffffffffffffffffffffffffffffffffffffffffffffffff191614806103be57507f5b5e139f000000000000000000000000000000000000000000000000000000007bffffffffffffffffffffffffffffffffffffffffffffffffffffffff1916827bffffffffffffffffffffffffffffffffffffffffffffffffffffffff1916145b806103ce57506103cd826109e3565b5b9050919050565b6060600080546103e490611c52565b80601f016020809104026020016040519081016040528092919081815260200182805461041090611c52565b801561045d5780601f106104325761010080835404028352916020019161045d565b820191906000526020600020905b81548152906001019060200180831161044057829003601f168201915b5050505050905090565b600061047282610a4d565b6004600083815260200190815260200160002060009054906101000a900473ffffffffffffffffffffffffffffffffffffffff169050919050565b60006104b8826106a0565b90508073ffffffffffffffffffffffffffffffffffffffff168373ffffffffffffffffffffffffffffffffffffffff1603610528576040517f08c379a000000000000000000000000000000000000000000000000000000000815260040161051f90611cf5565b60405180910390fd5b8073ffffffffffffffffffffffffffffffffffffffff16610547610a98565b73ffffffffffffffffffffffffffffffffffffffff161480610576575061057581610570610a98565b61094f565b5b6105b5576040517f08c379a00000000000000000000000000000000000000000000000000000000081526004016105ac90611d87565b60405180910390fd5b6105bf8383610aa0565b505050565b6105d56105cf610a98565b82610b59565b610614576040517f08c379a000000000000000000000000000000000000000000000000000000000815260040161060b90611e19565b60405180910390fd5b61061f838383610bee565b505050565b61063f83838360405180602001604052806000815250610885565b505050565b61065561064f610a98565b82610b59565b610694576040517f08c379a000000000000000000000000000000000000000000000000000000000815260040161068b90611e19565b60405180910390fd5b61069d81610ee7565b50565b6000806106ac83611035565b9050600073ffffffffffffffffffffffffffffffffffffffff168173ffffffffffffffffffffffffffffffffffffffff160361071d576040517f08c379a000000000000000000000000000000000000000000000000000000000815260040161071490611e85565b60405180910390fd5b80915050919050565b60008073ffffffffffffffffffffffffffffffffffffffff168273ffffffffffffffffffffffffffffffffffffffff1603610796576040517f08c379a000000000000000000000000000000000000000000000000000000000815260040161078d90611f17565b60405180910390fd5b600360008373ffffffffffffffffffffffffffffffffffffffff1673ffffffffffffffffffffffffffffffffffffffff168152602001908152602001600020549050919050565b6060600180546107ec90611c52565b80601f016020809104026020016040519081016040528092919081815260200182805461081890611c52565b80156108655780601f1061083a57610100808354040283529160200191610865565b820191906000526020600020905b81548152906001019060200180831161084857829003601f168201915b5050505050905090565b61088161087a610a98565b8383611072565b5050565b610896610890610a98565b83610b59565b6108d5576040517f08c379a00000000000000000000000000000000000000000000000000000000081526004016108cc90611e19565b60405180910390fd5b6108e1848484846111de565b50505050565b60606108f282610a4d565b60006108fc61123a565b9050600081511161091c5760405180602001604052806000815250610947565b8061092684611251565b604051602001610937929190611f73565b6040516020818303038152906040525b915050919050565b6000600560008473ffffffffffffffffffffffffffffffffffffffff1673ffffffffffffffffffffffffffffffffffffffff16815260200190815260200160002060008373ffffffffffffffffffffffffffffffffffffffff1673ffffffffffffffffffffffffffffffffffffffff16815260200190815260200160002060009054906101000a900460ff16905092915050565b60007f01ffc9a7000000000000000000000000000000000000000000000000000000007bffffffffffffffffffffffffffffffffffffffffffffffffffffffff1916827bffffffffffffffffffffffffffffffffffffffffffffffffffffffff1916149050919050565b610a568161131f565b610a95576040517f08c379a0000000000000000000000000000000000000000000000000000000008152600401610a8c90611e85565b60405180910390fd5b50565b600033905090565b816004600083815260200190815260200160002060006101000a81548173ffffffffffffffffffffffffffffffffffffffff021916908373ffffffffffffffffffffffffffffffffffffffff160217905550808273ffffffffffffffffffffffffffffffffffffffff16610b13836106a0565b73ffffffffffffffffffffffffffffffffffffffff167f8c5be1e5ebec7d5bd14f71427d1e84f3dd0314c0f7b2291e5b200ac8c7c3b92560405160405180910390a45050565b600080610b65836106a0565b90508073ffffffffffffffffffffffffffffffffffffffff168473ffffffffffffffffffffffffffffffffffffffff161480610ba75750610ba6818561094f565b5b80610be557508373ffffffffffffffffffffffffffffffffffffffff16610bcd84610467565b73ffffffffffffffffffffffffffffffffffffffff16145b91505092915050565b8273ffffffffffffffffffffffffffffffffffffffff16610c0e826106a0565b73ffffffffffffffffffffffffffffffffffffffff1614610c64576040517f08c379a0000000000000000000000000000000000000000000000000000000008152600401610c5b90612009565b60405180910390fd5b600073ffffffffffffffffffffffffffffffffffffffff168273ffffffffffffffffffffffffffffffffffffffff1603610cd3576040517f08c379a0000000000000000000000000000000000000000000000000000000008152600401610cca9061209b565b60405180910390fd5b610ce08383836001611360565b8273ffffffffffffffffffffffffffffffffffffffff16610d00826106a0565b73ffffffffffffffffffffffffffffffffffffffff1614610d56576040517f08c379a0000000000000000000000000000000000000000000000000000000008152600401610d4d90612009565b60405180910390fd5b6004600082815260200190815260200160002060006101000a81549073ffffffffffffffffffffffffffffffffffffffff02191690556001600360008573ffffffffffffffffffffffffffffffffffffffff1673ffffffffffffffffffffffffffffffffffffffff168152602001908152602001600020600082825403925050819055506001600360008473ffffffffffffffffffffffffffffffffffffffff1673ffffffffffffffffffffffffffffffffffffffff16815260200190815260200160002060008282540192505081905550816002600083815260200190815260200160002060006101000a81548173ffffffffffffffffffffffffffffffffffffffff021916908373ffffffffffffffffffffffffffffffffffffffff160217905550808273ffffffffffffffffffffffffffffffffffffffff168473ffffffffffffffffffffffffffffffffffffffff167fddf252ad1be2c89b69c2b068fc378daa952ba7f163c4a11628f55a4df523b3ef60405160405180910390a4610ee28383836001611366565b505050565b6000610ef2826106a0565b9050610f02816000846001611360565b610f0b826106a0565b90506004600083815260200190815260200160002060006101000a81549073ffffffffffffffffffffffffffffffffffffffff02191690556001600360008373ffffffffffffffffffffffffffffffffffffffff1673ffffffffffffffffffffffffffffffffffffffff168152602001908152602001600020600082825403925050819055506002600083815260200190815260200160002060006101000a81549073ffffffffffffffffffffffffffffffffffffffff021916905581600073ffffffffffffffffffffffffffffffffffffffff168273ffffffffffffffffffffffffffffffffffffffff167fddf252ad1be2c89b69c2b068fc378daa952ba7f163c4a11628f55a4df523b3ef60405160405180910390a4611031816000846001611366565b5050565b60006002600083815260200190815260200160002060009054906101000a900473ffffffffffffffffffffffffffffffffffffffff169050919050565b8173ffffffffffffffffffffffffffffffffffffffff168373ffffffffffffffffffffffffffffffffffffffff16036110e0576040517f08c379a00000000000000000000000000000000000000000000000000000000081526004016110d790612107565b60405180910390fd5b80600560008573ffffffffffffffffffffffffffffffffffffffff1673ffffffffffffffffffffffffffffffffffffffff16815260200190815260200160002060008473ffffffffffffffffffffffffffffffffffffffff1673ffffffffffffffffffffffffffffffffffffffff16815260200190815260200160002060006101000a81548160ff0219169083151502179055508173ffffffffffffffffffffffffffffffffffffffff168373ffffffffffffffffffffffffffffffffffffffff167f17307eab39ab6107e8899845ad3d59bd9653f200f220920489ca2b5937696c31836040516111d1919061171d565b60405180910390a3505050565b6111e9848484610bee565b6111f58484848461136c565b611234576040517f08c379a000000000000000000000000000000000000000000000000000000000815260040161122b90612199565b60405180910390fd5b50505050565b606060405180602001604052806000815250905090565b606060006001611260846114f3565b01905060008167ffffffffffffffff81111561127f5761127e611a35565b5b6040519080825280601f01601f1916602001820160405280156112b15781602001600182028036833780820191505090505b509050600082602001820190505b600115611314578080600190039150507f3031323334353637383961626364656600000000000000000000000000000000600a86061a8153600a8581611308576113076121b9565b5b049450600085036112bf575b819350505050919050565b60008073ffffffffffffffffffffffffffffffffffffffff1661134183611035565b73ffffffffffffffffffffffffffffffffffffffff1614159050919050565b50505050565b50505050565b600061138d8473ffffffffffffffffffffffffffffffffffffffff16611646565b156114e6578373ffffffffffffffffffffffffffffffffffffffff1663150b7a026113b6610a98565b8786866040518563ffffffff1660e01b81526004016113d8949392919061223d565b6020604051808303816000875af192505050801561141457506040513d601f19601f82011682018060405250810190611411919061229e565b60015b611496573d8060008114611444576040519150601f19603f3d011682016040523d82523d6000602084013e611449565b606091505b50600081510361148e576040517f08c379a000000000000000000000000000000000000000000000000000000000815260040161148590612199565b60405180910390fd5b805181602001fd5b63150b7a0260e01b7bffffffffffffffffffffffffffffffffffffffffffffffffffffffff1916817bffffffffffffffffffffffffffffffffffffffffffffffffffffffff1916149150506114eb565b600190505b949350505050565b600080600090507a184f03e93ff9f4daa797ed6e38ed64bf6a1f0100000000000000008310611551577a184f03e93ff9f4daa797ed6e38ed64bf6a1f0100000000000000008381611547576115466121b9565b5b0492506040810190505b6d04ee2d6d415b85acef8100000000831061158e576d04ee2d6d415b85acef81000000008381611584576115836121b9565b5b0492506020810190505b662386f26fc1000083106115bd57662386f26fc1000083816115b3576115b26121b9565b5b0492506010810190505b6305f5e10083106115e6576305f5e10083816115dc576115db6121b9565b5b0492506008810190505b612710831061160b576127108381611601576116006121b9565b5b0492506004810190505b6064831061162e5760648381611624576116236121b9565b5b0492506002810190505b600a831061163d576001810190505b80915050919050565b6000808273ffffffffffffffffffffffffffffffffffffffff163b119050919050565b6000604051905090565b600080fd5b600080fd5b60007fffffffff0000000000000000000000000000000000000000000000000000000082169050919050565b6116b28161167d565b81146116bd57600080fd5b50565b6000813590506116cf816116a9565b92915050565b6000602082840312156116eb576116ea611673565b5b60006116f9848285016116c0565b91505092915050565b60008115159050919050565b61171781611702565b82525050565b6000602082019050611732600083018461170e565b92915050565b600081519050919050565b600082825260208201905092915050565b60005b83811015611772578082015181840152602081019050611757565b60008484015250505050565b6000601f19601f8301169050919050565b600061179a82611738565b6117a48185611743565b93506117b4818560208601611754565b6117bd8161177e565b840191505092915050565b600060208201905081810360008301526117e2818461178f565b905092915050565b6000819050919050565b6117fd816117ea565b811461180857600080fd5b50565b60008135905061181a816117f4565b92915050565b60006020828403121561183657611835611673565b5b60006118448482850161180b565b91505092915050565b600073ffffffffffffffffffffffffffffffffffffffff82169050919050565b60006118788261184d565b9050919050565b6118888161186d565b82525050565b60006020820190506118a3600083018461187f565b92915050565b6118b28161186d565b81146118bd57600080fd5b50565b6000813590506118cf816118a9565b92915050565b600080604083850312156118ec576118eb611673565b5b60006118fa858286016118c0565b925050602061190b8582860161180b565b9150509250929050565b60008060006060848603121561192e5761192d611673565b5b600061193c868287016118c0565b935050602061194d868287016118c0565b925050604061195e8682870161180b565b9150509250925092565b60006020828403121561197e5761197d611673565b5b600061198c848285016118c0565b91505092915050565b61199e816117ea565b82525050565b60006020820190506119b96000830184611995565b92915050565b6119c881611702565b81146119d357600080fd5b50565b6000813590506119e5816119bf565b92915050565b60008060408385031215611a0257611a01611673565b5b6000611a10858286016118c0565b9250506020611a21858286016119d6565b9150509250929050565b600080fd5b600080fd5b7f4e487b7100000000000000000000000000000000000000000000000000000000600052604160045260246000fd5b611a6d8261177e565b810181811067ffffffffffffffff82111715611a8c57611a8b611a35565b5b80604052505050565b6000611a9f611669565b9050611aab8282611a64565b919050565b600067ffffffffffffffff821115611acb57611aca611a35565b5b611ad48261177e565b9050602081019050919050565b82818337600083830152505050565b6000611b03611afe84611ab0565b611a95565b905082815260208101848484011115611b1f57611b1e611a30565b5b611b2a848285611ae1565b509392505050565b600082601f830112611b4757611b46611a2b565b5b8135611b57848260208601611af0565b91505092915050565b60008060008060808587031215611b7a57611b79611673565b5b6000611b88878288016118c0565b9450506020611b99878288016118c0565b9350506040611baa8782880161180b565b925050606085013567ffffffffffffffff811115611bcb57611bca611678565b5b611bd787828801611b32565b91505092959194509250565b60008060408385031215611bfa57611bf9611673565b5b6000611c08858286016118c0565b9250506020611c19858286016118c0565b9150509250929050565b7f4e487b7100000000000000000000000000000000000000000000000000000000600052602260045260246000fd5b60006002820490506001821680611c6a57607f821691505b602082108103611c7d57611c7c611c23565b5b50919050565b7f4552433732313a20617070726f76616c20746f2063757272656e74206f776e6560008201527f7200000000000000000000000000000000000000000000000000000000000000602082015250565b6000611cdf602183611743565b9150611cea82611c83565b604082019050919050565b60006020820190508181036000830152611d0e81611cd2565b9050919050565b7f4552433732313a20617070726f76652063616c6c6572206973206e6f7420746f60008201527f6b656e206f776e6572206f7220617070726f76656420666f7220616c6c000000602082015250565b6000611d71603d83611743565b9150611d7c82611d15565b604082019050919050565b60006020820190508181036000830152611da081611d64565b9050919050565b7f4552433732313a2063616c6c6572206973206e6f7420746f6b656e206f776e6560008201527f72206f7220617070726f76656400000000000000000000000000000000000000602082015250565b6000611e03602d83611743565b9150611e0e82611da7565b604082019050919050565b60006020820190508181036000830152611e3281611df6565b9050919050565b7f4552433732313a20696e76616c696420746f6b656e2049440000000000000000600082015250565b6000611e6f601883611743565b9150611e7a82611e39565b602082019050919050565b60006020820190508181036000830152611e9e81611e62565b9050919050565b7f4552433732313a2061646472657373207a65726f206973206e6f74206120766160008201527f6c6964206f776e65720000000000000000000000000000000000000000000000602082015250565b6000611f01602983611743565b9150611f0c82611ea5565b604082019050919050565b60006020820190508181036000830152611f3081611ef4565b9050919050565b600081905092915050565b6000611f4d82611738565b611f578185611f37565b9350611f67818560208601611754565b80840191505092915050565b6000611f7f8285611f42565b9150611f8b8284611f42565b91508190509392505050565b7f4552433732313a207472616e736665722066726f6d20696e636f72726563742060008201527f6f776e6572000000000000000000000000000000000000000000000000000000602082015250565b6000611ff3602583611743565b9150611ffe82611f97565b604082019050919050565b6000602082019050818103600083015261202281611fe6565b9050919050565b7f4552433732313a207472616e7366657220746f20746865207a65726f2061646460008201527f7265737300000000000000000000000000000000000000000000000000000000602082015250565b6000612085602483611743565b915061209082612029565b604082019050919050565b600060208201905081810360008301526120b481612078565b9050919050565b7f4552433732313a20617070726f766520746f2063616c6c657200000000000000600082015250565b60006120f1601983611743565b91506120fc826120bb565b602082019050919050565b60006020820190508181036000830152612120816120e4565b9050919050565b7f4552433732313a207472616e7366657220746f206e6f6e20455243373231526560008201527f63656976657220696d706c656d656e7465720000000000000000000000000000602082015250565b6000612183603283611743565b915061218e82612127565b604082019050919050565b600060208201905081810360008301526121b281612176565b9050919050565b7f4e487b7100000000000000000000000000000000000000000000000000000000600052601260045260246000fd5b600081519050919050565b600082825260208201905092915050565b600061220f826121e8565b61221981856121f3565b9350612229818560208601611754565b6122328161177e565b840191505092915050565b6000608082019050612252600083018761187f565b61225f602083018661187f565b61226c6040830185611995565b818103606083015261227e8184612204565b905095945050505050565b600081519050612298816116a9565b92915050565b6000602082840312156122b4576122b3611673565b5b60006122c284828501612289565b9150509291505056fea264697066735822122042e112c89553aad0c46fa6195e56ed856a4a83b62810824e08b486ffb619f69664736f6c63430008130033",
  "linkReferences": {},
  "deployedLinkReferences": {}
}