{
  "_format": "hh-sol-artifact-1",
  "contractName": "Upgrader",
  "sourceName": "contracts/helpers/Upgrader.sol",
  "abi": [
    {
      "inputs": [],
      "stateMutability": "nonpayable",
      "type": "constructor"
    },
    {
      "anonymous": false,
      "inputs": [
        {
          "indexed": true,
          "internalType": "address",
          "name": "previousOwner",
          "type": "address"
        },
        {
          "indexed": true,
          "internalType": "address",
          "name": "newOwner",
          "type": "address"
        }
      ],
      "name": "OwnershipTransferred",
      "type": "event"
    },
    {
      "inputs": [
        {
          "internalType": "address",
          "name": "what",
          "type": "address"
        }
      ],
      "name": "getImplementation",
      "outputs": [
        {
          "internalType": "address",
          "name": "",
          "type": "address"
        }
      ],
      "stateMutability": "view",
      "type": "function"
    },
    {
      "inputs": [],
      "name": "owner",
      "outputs": [
        {
          "internalType": "address",
          "name": "",
          "type": "address"
        }
      ],
      "stateMutability": "view",
      "type": "function"
    },
    {
      "inputs": [],
      "name": "renounceOwnership",
      "outputs": [],
      "stateMutability": "nonpayable",
      "type": "function"
    },
    {
      "inputs": [
        {
          "internalType": "address",
          "name": "newOwner",
          "type": "address"
        }
      ],
      "name": "transferOwnership",
      "outputs": [],
      "stateMutability": "nonpayable",
      "type": "function"
    },
    {
      "inputs": [
        {
          "internalType": "address",
          "name": "what",
          "type": "address"
        },
        {
          "internalType": "address",
          "name": "to",
          "type": "address"
        }
      ],
      "name": "upgrade",
      "outputs": [],
      "stateMutability": "nonpayable",
      "type": "function"
    },
    {
      "inputs": [
        {
          "internalType": "address",
          "name": "what",
          "type": "address"
        },
        {
          "internalType": "address",
          "name": "to",
          "type": "address"
        },
        {
          "internalType": "bytes",
          "name": "data",
          "type": "bytes"
        }
      ],
      "name": "upgradeAndCall",
      "outputs": [],
      "stateMutability": "nonpayable",
      "type": "function"
    }
  ],
  "bytecode": "0x608060405234801561001057600080fd5b5061002d61002261003260201b60201c565b61003a60201b60201c565b6100fe565b600033905090565b60008060009054906101000a900473ffffffffffffffffffffffffffffffffffffffff169050816000806101000a81548173ffffffffffffffffffffffffffffffffffffffff021916908373ffffffffffffffffffffffffffffffffffffffff1602179055508173ffffffffffffffffffffffffffffffffffffffff168173ffffffffffffffffffffffffffffffffffffffff167f8be0079c531659141344cd1fd0a4f28419497f9722a3daafe3b4186f6b6457e060405160405180910390a35050565b6108808061010d6000396000f3fe608060405234801561001057600080fd5b50600436106100625760003560e01c806315ac72ca14610067578063715018a6146100975780638da5cb5b146100a15780639623609d146100bf57806399a88ec4146100db578063f2fde38b146100f7575b600080fd5b610081600480360381019061007c91906104f9565b610113565b60405161008e9190610535565b60405180910390f35b61009f610193565b005b6100a96101a7565b6040516100b69190610535565b60405180910390f35b6100d960048036038101906100d491906105b5565b6101d0565b005b6100f560048036038101906100f09190610629565b61024d565b005b610111600480360381019061010c91906104f9565b6102c4565b005b600061011d610347565b8173ffffffffffffffffffffffffffffffffffffffff16635c60da1b6040518163ffffffff1660e01b8152600401602060405180830381865afa158015610168573d6000803e3d6000fd5b505050506040513d601f19601f8201168201806040525081019061018c919061067e565b9050919050565b61019b610347565b6101a560006103c5565b565b60008060009054906101000a900473ffffffffffffffffffffffffffffffffffffffff16905090565b6101d8610347565b8373ffffffffffffffffffffffffffffffffffffffff16634f1ef2868484846040518463ffffffff1660e01b815260040161021593929190610709565b600060405180830381600087803b15801561022f57600080fd5b505af1158015610243573d6000803e3d6000fd5b5050505050505050565b610255610347565b8173ffffffffffffffffffffffffffffffffffffffff16633659cfe6826040518263ffffffff1660e01b815260040161028e9190610535565b600060405180830381600087803b1580156102a857600080fd5b505af11580156102bc573d6000803e3d6000fd5b505050505050565b6102cc610347565b600073ffffffffffffffffffffffffffffffffffffffff168173ffffffffffffffffffffffffffffffffffffffff160361033b576040517f08c379a0000000000000000000000000000000000000000000000000000000008152600401610332906107be565b60405180910390fd5b610344816103c5565b50565b61034f610489565b73ffffffffffffffffffffffffffffffffffffffff1661036d6101a7565b73ffffffffffffffffffffffffffffffffffffffff16146103c3576040517f08c379a00000000000000000000000000000000000000000000000000000000081526004016103ba9061082a565b60405180910390fd5b565b60008060009054906101000a900473ffffffffffffffffffffffffffffffffffffffff169050816000806101000a81548173ffffffffffffffffffffffffffffffffffffffff021916908373ffffffffffffffffffffffffffffffffffffffff1602179055508173ffffffffffffffffffffffffffffffffffffffff168173ffffffffffffffffffffffffffffffffffffffff167f8be0079c531659141344cd1fd0a4f28419497f9722a3daafe3b4186f6b6457e060405160405180910390a35050565b600033905090565b600080fd5b600080fd5b600073ffffffffffffffffffffffffffffffffffffffff82169050919050565b60006104c68261049b565b9050919050565b6104d6816104bb565b81146104e157600080fd5b50565b6000813590506104f3816104cd565b92915050565b60006020828403121561050f5761050e610491565b5b600061051d848285016104e4565b91505092915050565b61052f816104bb565b82525050565b600060208201905061054a6000830184610526565b92915050565b600080fd5b600080fd5b600080fd5b60008083601f84011261057557610574610550565b5b8235905067ffffffffffffffff81111561059257610591610555565b5b6020830191508360018202830111156105ae576105ad61055a565b5b9250929050565b600080600080606085870312156105cf576105ce610491565b5b60006105dd878288016104e4565b94505060206105ee878288016104e4565b935050604085013567ffffffffffffffff81111561060f5761060e610496565b5b61061b8782880161055f565b925092505092959194509250565b600080604083850312156106405761063f610491565b5b600061064e858286016104e4565b925050602061065f858286016104e4565b9150509250929050565b600081519050610678816104cd565b92915050565b60006020828403121561069457610693610491565b5b60006106a284828501610669565b91505092915050565b600082825260208201905092915050565b82818337600083830152505050565b6000601f19601f8301169050919050565b60006106e883856106ab565b93506106f58385846106bc565b6106fe836106cb565b840190509392505050565b600060408201905061071e6000830186610526565b81810360208301526107318184866106dc565b9050949350505050565b600082825260208201905092915050565b7f4f776e61626c653a206e6577206f776e657220697320746865207a65726f206160008201527f6464726573730000000000000000000000000000000000000000000000000000602082015250565b60006107a860268361073b565b91506107b38261074c565b604082019050919050565b600060208201905081810360008301526107d78161079b565b9050919050565b7f4f776e61626c653a2063616c6c6572206973206e6f7420746865206f776e6572600082015250565b600061081460208361073b565b915061081f826107de565b602082019050919050565b6000602082019050818103600083015261084381610807565b905091905056fea2646970667358221220488cf46171b32473e8242e62d2ee8509315b607c3c35e4b8b5cb362128edac4b64736f6c63430008130033",
  "linkReferences": {},
  "deployedLinkReferences": {}
}